{
  "_format": "hh-sol-artifact-1",
  "contractName": "FairLaunchV3Factory",
  "sourceName": "contracts/presale/FairLaunchV3Factory.sol",
  "abi": [
    {
      "inputs": [],
      "stateMutability": "nonpayable",
      "type": "constructor"
    },
    {
      "anonymous": false,
      "inputs": [
        {
          "indexed": true,
          "internalType": "address",
          "name": "creator",
          "type": "address"
        },
        {
          "indexed": true,
          "internalType": "address",
          "name": "fairlaunch",
          "type": "address"
        },
        {
          "indexed": true,
          "internalType": "address",
          "name": "saleToken",
          "type": "address"
        },
        {
          "indexed": false,
          "internalType": "address",
          "name": "baseToken",
          "type": "address"
        },
        {
          "indexed": false,
          "internalType": "bool",
          "name": "isNative",
          "type": "bool"
        },
        {
          "indexed": false,
          "internalType": "uint256",
          "name": "sellingAmount",
          "type": "uint256"
        },
        {
          "indexed": false,
          "internalType": "uint256",
          "name": "softCap",
          "type": "uint256"
        }
      ],
      "name": "FairlaunchCreated",
      "type": "event"
    },
    {
      "anonymous": false,
      "inputs": [
        {
          "indexed": false,
          "internalType": "address",
          "name": "oldFeeTo",
          "type": "address"
        },
        {
          "indexed": false,
          "internalType": "address",
          "name": "newFeeTo",
          "type": "address"
        }
      ],
      "name": "FeeToUpdated",
      "type": "event"
    },
    {
      "anonymous": false,
      "inputs": [
        {
          "indexed": false,
          "internalType": "uint256",
          "name": "oldFee",
          "type": "uint256"
        },
        {
          "indexed": false,
          "internalType": "uint256",
          "name": "newFee",
          "type": "uint256"
        }
      ],
      "name": "FlatFeeUpdated",
      "type": "event"
    },
    {
      "anonymous": false,
      "inputs": [
        {
          "indexed": true,
          "internalType": "address",
          "name": "previousOwner",
          "type": "address"
        },
        {
          "indexed": true,
          "internalType": "address",
          "name": "newOwner",
          "type": "address"
        }
      ],
      "name": "OwnershipTransferred",
      "type": "event"
    },
    {
      "anonymous": false,
      "inputs": [
        {
          "indexed": true,
          "internalType": "address",
          "name": "referrer",
          "type": "address"
        },
        {
          "indexed": false,
          "internalType": "uint256",
          "name": "amount",
          "type": "uint256"
        }
      ],
      "name": "ReferralFeePaid",
      "type": "event"
    },
    {
      "anonymous": false,
      "inputs": [
        {
          "indexed": false,
          "internalType": "uint256",
          "name": "oldPercent",
          "type": "uint256"
        },
        {
          "indexed": false,
          "internalType": "uint256",
          "name": "newPercent",
          "type": "uint256"
        }
      ],
      "name": "ReferralFeeUpdated",
      "type": "event"
    },
    {
      "anonymous": false,
      "inputs": [
        {
          "indexed": true,
          "internalType": "address",
          "name": "referrer",
          "type": "address"
        },
        {
          "indexed": false,
          "internalType": "bool",
          "name": "authorized",
          "type": "bool"
        }
      ],
      "name": "ReferrerAuthorized",
      "type": "event"
    },
    {
      "inputs": [],
      "name": "MAX_LIQUIDITY_PERCENT",
      "outputs": [
        {
          "internalType": "uint256",
          "name": "",
          "type": "uint256"
        }
      ],
      "stateMutability": "view",
      "type": "function"
    },
    {
      "inputs": [],
      "name": "MIN_LIQUIDITY_PERCENT",
      "outputs": [
        {
          "internalType": "uint256",
          "name": "",
          "type": "uint256"
        }
      ],
      "stateMutability": "view",
      "type": "function"
    },
    {
      "inputs": [
        {
          "internalType": "uint256",
          "name": "",
          "type": "uint256"
        }
      ],
      "name": "allFairlaunches",
      "outputs": [
        {
          "internalType": "address",
          "name": "",
          "type": "address"
        }
      ],
      "stateMutability": "view",
      "type": "function"
    },
    {
      "inputs": [
        {
          "internalType": "address",
          "name": "",
          "type": "address"
        }
      ],
      "name": "authorizedReferrers",
      "outputs": [
        {
          "internalType": "bool",
          "name": "",
          "type": "bool"
        }
      ],
      "stateMutability": "view",
      "type": "function"
    },
    {
      "inputs": [
        {
          "internalType": "address[]",
          "name": "_referrers",
          "type": "address[]"
        },
        {
          "internalType": "bool",
          "name": "_authorized",
          "type": "bool"
        }
      ],
      "name": "batchAuthorizeReferrers",
      "outputs": [],
      "stateMutability": "nonpayable",
      "type": "function"
    },
    {
      "inputs": [],
      "name": "calculateReferralFee",
      "outputs": [
        {
          "internalType": "uint256",
          "name": "",
          "type": "uint256"
        }
      ],
      "stateMutability": "view",
      "type": "function"
    },
    {
      "inputs": [
        {
          "internalType": "address",
          "name": "_sale_token",
          "type": "address"
        },
        {
          "internalType": "address",
          "name": "_base_token",
          "type": "address"
        },
        {
          "internalType": "bool",
          "name": "presale_in_native",
          "type": "bool"
        },
        {
          "internalType": "uint256",
          "name": "_buyback",
          "type": "uint256"
        },
        {
          "internalType": "bool",
          "name": "_whitelist",
          "type": "bool"
        },
        {
          "internalType": "uint256",
          "name": "_selling_amount",
          "type": "uint256"
        },
        {
          "internalType": "uint256",
          "name": "_softcap",
          "type": "uint256"
        },
        {
          "internalType": "uint256",
          "name": "_liquidityPercent",
          "type": "uint256"
        },
        {
          "internalType": "uint256",
          "name": "_presale_start",
          "type": "uint256"
        },
        {
          "internalType": "uint256",
          "name": "_presale_end",
          "type": "uint256"
        }
      ],
      "name": "create",
      "outputs": [
        {
          "internalType": "address",
          "name": "",
          "type": "address"
        }
      ],
      "stateMutability": "payable",
      "type": "function"
    },
    {
      "inputs": [
        {
          "internalType": "address",
          "name": "_saleToken",
          "type": "address"
        },
        {
          "internalType": "address",
          "name": "_baseToken",
          "type": "address"
        },
        {
          "internalType": "bool",
          "name": "_isNative",
          "type": "bool"
        },
        {
          "internalType": "uint256",
          "name": "_buybackRate",
          "type": "uint256"
        },
        {
          "internalType": "bool",
          "name": "_isWhitelist",
          "type": "bool"
        },
        {
          "internalType": "uint256",
          "name": "_sellingAmount",
          "type": "uint256"
        },
        {
          "internalType": "uint256",
          "name": "_softCap",
          "type": "uint256"
        },
        {
          "internalType": "uint256",
          "name": "_liquidityPercent",
          "type": "uint256"
        },
        {
          "internalType": "uint256",
          "name": "_fairlaunchStart",
          "type": "uint256"
        },
        {
          "internalType": "uint256",
          "name": "_fairlaunchEnd",
          "type": "uint256"
        },
        {
          "internalType": "address",
          "name": "_referrer",
          "type": "address"
        }
      ],
      "name": "createFairlaunch",
      "outputs": [
        {
          "internalType": "address",
          "name": "",
          "type": "address"
        }
      ],
      "stateMutability": "payable",
      "type": "function"
    },
    {
      "inputs": [],
      "name": "emergencyWithdraw",
      "outputs": [],
      "stateMutability": "nonpayable",
      "type": "function"
    },
    {
      "inputs": [],
      "name": "feeTo",
      "outputs": [
        {
          "internalType": "address",
          "name": "",
          "type": "address"
        }
      ],
      "stateMutability": "view",
      "type": "function"
    },
    {
      "inputs": [],
      "name": "flatFee",
      "outputs": [
        {
          "internalType": "uint256",
          "name": "",
          "type": "uint256"
        }
      ],
      "stateMutability": "view",
      "type": "function"
    },
    {
      "inputs": [
        {
          "internalType": "uint256",
          "name": "_index",
          "type": "uint256"
        }
      ],
      "name": "getFairlaunch",
      "outputs": [
        {
          "internalType": "address",
          "name": "",
          "type": "address"
        }
      ],
      "stateMutability": "view",
      "type": "function"
    },
    {
      "inputs": [],
      "name": "getFeeTo",
      "outputs": [
        {
          "internalType": "address",
          "name": "",
          "type": "address"
        }
      ],
      "stateMutability": "view",
      "type": "function"
    },
    {
      "inputs": [],
      "name": "getFlatFee",
      "outputs": [
        {
          "internalType": "uint256",
          "name": "",
          "type": "uint256"
        }
      ],
      "stateMutability": "view",
      "type": "function"
    },
    {
      "inputs": [],
      "name": "getOwner",
      "outputs": [
        {
          "internalType": "address",
          "name": "",
          "type": "address"
        }
      ],
      "stateMutability": "view",
      "type": "function"
    },
    {
      "inputs": [],
      "name": "getReferralFeePercent",
      "outputs": [
        {
          "internalType": "uint256",
          "name": "",
          "type": "uint256"
        }
      ],
      "stateMutability": "view",
      "type": "function"
    },
    {
      "inputs": [
        {
          "internalType": "address",
          "name": "_user",
          "type": "address"
        }
      ],
      "name": "getUserFairlaunchCount",
      "outputs": [
        {
          "internalType": "uint256",
          "name": "",
          "type": "uint256"
        }
      ],
      "stateMutability": "view",
      "type": "function"
    },
    {
      "inputs": [
        {
          "internalType": "address",
          "name": "_user",
          "type": "address"
        }
      ],
      "name": "getUserFairlaunches",
      "outputs": [
        {
          "internalType": "address[]",
          "name": "",
          "type": "address[]"
        }
      ],
      "stateMutability": "view",
      "type": "function"
    },
    {
      "inputs": [
        {
          "internalType": "address",
          "name": "_referrer",
          "type": "address"
        }
      ],
      "name": "isAuthorizedReferrer",
      "outputs": [
        {
          "internalType": "bool",
          "name": "",
          "type": "bool"
        }
      ],
      "stateMutability": "view",
      "type": "function"
    },
    {
      "inputs": [],
      "name": "owner",
      "outputs": [
        {
          "internalType": "address",
          "name": "",
          "type": "address"
        }
      ],
      "stateMutability": "view",
      "type": "function"
    },
    {
      "inputs": [],
      "name": "referralFeePercent",
      "outputs": [
        {
          "internalType": "uint256",
          "name": "",
          "type": "uint256"
        }
      ],
      "stateMutability": "view",
      "type": "function"
    },
    {
      "inputs": [
        {
          "internalType": "address",
          "name": "_feeTo",
          "type": "address"
        }
      ],
      "name": "setFeeTo",
      "outputs": [],
      "stateMutability": "nonpayable",
      "type": "function"
    },
    {
      "inputs": [
        {
          "internalType": "uint256",
          "name": "_fee",
          "type": "uint256"
        }
      ],
      "name": "setFlatFee",
      "outputs": [],
      "stateMutability": "nonpayable",
      "type": "function"
    },
    {
      "inputs": [
        {
          "internalType": "uint256",
          "name": "_percent",
          "type": "uint256"
        }
      ],
      "name": "setReferralFeePercent",
      "outputs": [],
      "stateMutability": "nonpayable",
      "type": "function"
    },
    {
      "inputs": [
        {
          "internalType": "address",
          "name": "_referrer",
          "type": "address"
        },
        {
          "internalType": "bool",
          "name": "_authorized",
          "type": "bool"
        }
      ],
      "name": "setReferrerAuthorization",
      "outputs": [],
      "stateMutability": "nonpayable",
      "type": "function"
    },
    {
      "inputs": [],
      "name": "totalFairlaunches",
      "outputs": [
        {
          "internalType": "uint256",
          "name": "",
          "type": "uint256"
        }
      ],
      "stateMutability": "view",
      "type": "function"
    },
    {
      "inputs": [
        {
          "internalType": "address",
          "name": "to",
          "type": "address"
        }
      ],
      "name": "transferOwner",
      "outputs": [],
      "stateMutability": "nonpayable",
      "type": "function"
    },
    {
      "inputs": [
        {
          "internalType": "address",
          "name": "_newOwner",
          "type": "address"
        }
      ],
      "name": "transferOwnership",
      "outputs": [],
      "stateMutability": "nonpayable",
      "type": "function"
    },
    {
      "inputs": [
        {
          "internalType": "address",
          "name": "",
          "type": "address"
        },
        {
          "internalType": "uint256",
          "name": "",
          "type": "uint256"
        }
      ],
      "name": "userFairlaunches",
      "outputs": [
        {
          "internalType": "address",
          "name": "",
          "type": "address"
        }
      ],
      "stateMutability": "view",
      "type": "function"
    }
  ],
  "bytecode": "0x608060405234801561001057600080fd5b50600160008181558154336001600160a01b031991821681179093556002805490911683179055692a5a058fc295ed000000600355600a6004556040517f8be0079c531659141344cd1fd0a4f28419497f9722a3daafe3b4186f6b6457e0908290a3615495806100816000396000f3fe608060405260043610620001e75760003560e01c80636611f528116200010b578063c342381e11620000a1578063e5e56db1116200006c578063e5e56db1146200054c578063ef2ecf951462000563578063f2fde38b146200037c578063f46901ed14620005a057600080fd5b8063c342381e1462000242578063d98616d514620004e2578063d9eb5947146200051c578063db2e21bc146200053457600080fd5b80638da5cb5b11620000e25780638da5cb5b14620004515780639f5b85031462000473578063a84119be1462000498578063baf4f0c714620004bd57600080fd5b80636611f52814620003fa578063893d20e8146200041a5780638a601fc8146200043a57600080fd5b80633afbb40d11620001815780634603b01b11620001585780634603b01b14620003375780634fb2e45d146200037c578063510a352f14620003a1578063614524e214620003d557600080fd5b80633afbb40d14620002e35780633fa96134146200030857806340b5794a146200031f57600080fd5b806313c9440b11620001c257806313c9440b146200026857806321b70e2914620002805780632223f22e146200029757806323fa495a14620002bc57600080fd5b8063017e7e5814620001ec57806303a1bf49146200022b5780630d744c3a1462000242575b600080fd5b348015620001f957600080fd5b506002546200020e906001600160a01b031681565b6040516001600160a01b0390911681526020015b60405180910390f35b6200020e6200023c36600462001804565b620005c5565b3480156200024f57600080fd5b5062000259606481565b60405190815260200162000222565b3480156200027557600080fd5b506200025960045481565b6200020e62000291366004620018b5565b6200070d565b348015620002a457600080fd5b506200020e620002b63660046200194e565b62000758565b348015620002c957600080fd5b50620002e1620002db3660046200194e565b62000783565b005b348015620002f057600080fd5b506200020e620003023660046200194e565b620007f6565b3480156200031557600080fd5b5060065462000259565b3480156200032c57600080fd5b506200025962000873565b3480156200034457600080fd5b506200036b6200035636600462001968565b60056020526000908152604090205460ff1681565b604051901515815260200162000222565b3480156200038957600080fd5b50620002e16200039b36600462001968565b620008a0565b348015620003ae57600080fd5b50620003c6620003c036600462001968565b6200096b565b60405162000222919062001986565b348015620003e257600080fd5b50620002e1620003f43660046200194e565b620009e3565b3480156200040757600080fd5b506002546001600160a01b03166200020e565b3480156200042757600080fd5b506001546001600160a01b03166200020e565b3480156200044757600080fd5b5060035462000259565b3480156200045e57600080fd5b506001546200020e906001600160a01b031681565b3480156200048057600080fd5b50620002e162000492366004620019d5565b62000a9a565b348015620004a557600080fd5b50620002e1620004b736600462001a62565b62000c32565b348015620004ca57600080fd5b506200020e620004dc36600462001a9e565b62000d09565b348015620004ef57600080fd5b50620002596200050136600462001968565b6001600160a01b031660009081526007602052604090205490565b3480156200052957600080fd5b506200025960035481565b3480156200054157600080fd5b50620002e162000d42565b3480156200055957600080fd5b5060045462000259565b3480156200057057600080fd5b506200036b6200058236600462001968565b6001600160a01b031660009081526005602052604090205460ff1690565b348015620005ad57600080fd5b50620002e1620005bf36600462001968565b62000db7565b600060026000541415620006205760405162461bcd60e51b815260206004820152601f60248201527f5265656e7472616e637947756172643a207265656e7472616e742063616c6c0060448201526064015b60405180910390fd5b6002600055600354341015620006715760405162461bcd60e51b8152602060048201526015602482015274496e73756666696369656e7420666c61742066656560581b604482015260640162000617565b846064811015801562000685575060648111155b620006a45760405162461bcd60e51b8152600401620006179062001acb565b620006b68d8d8d8d8c8c8b8b62000e8d565b620006c062001137565b6000620006d68e8e8e8e8e8e8e8e8e8e62001165565b9050620006e78e828b8a8862001206565b620006f7818f8f8f8d8d62001426565b60016000559d9c50505050505050505050505050565b600083606414620007325760405162461bcd60e51b8152600401620006179062001acb565b620007498b8b8b8b8b8b8b60648b8b6000620005c5565b9b9a5050505050505050505050565b600681815481106200076957600080fd5b6000918252602090912001546001600160a01b0316905081565b6001546001600160a01b03163314620007b05760405162461bcd60e51b8152600401620006179062001b0d565b600380549082905560408051828152602081018490527f957f8e165512616cc1b935b3ba999a8a0870b6e18300af633ba488f7926bce2d91015b60405180910390a15050565b6006546000908210620008425760405162461bcd60e51b8152602060048201526013602482015272496e646578206f7574206f6620626f756e647360681b604482015260640162000617565b6006828154811062000858576200085862001b30565b6000918252602090912001546001600160a01b031692915050565b60006200089b606462000894600454600354620014f490919063ffffffff16565b9062001584565b905090565b6001546001600160a01b03163314620008cd5760405162461bcd60e51b8152600401620006179062001b0d565b6001600160a01b038116620009195760405162461bcd60e51b815260206004820152601160248201527024b73b30b634b2103732bb9037bbb732b960791b604482015260640162000617565b600180546001600160a01b038381166001600160a01b0319831681179093556040519116919082907f8be0079c531659141344cd1fd0a4f28419497f9722a3daafe3b4186f6b6457e090600090a35050565b6001600160a01b038116600090815260076020908152604091829020805483518184028101840190945280845260609392830182828015620009d757602002820191906000526020600020905b81546001600160a01b03168152600190910190602001808311620009b8575b50505050509050919050565b6001546001600160a01b0316331462000a105760405162461bcd60e51b8152600401620006179062001b0d565b603281111562000a5b5760405162461bcd60e51b81526020600482015260156024820152740a4cacccae4e4c2d840cccaca40e8dede40d0d2ced605b1b604482015260640162000617565b600480549082905560408051828152602081018490527fe6a16ded5057640d8831f18cd4885a75642c76b3fde5215975c3d9735027fa209101620007ea565b6001546001600160a01b0316331462000ac75760405162461bcd60e51b8152600401620006179062001b0d565b60005b8281101562000c2c57600084848381811062000aea5762000aea62001b30565b905060200201602081019062000b01919062001968565b6001600160a01b0316141562000b4d5760405162461bcd60e51b815260206004820152601060248201526f24b73b30b634b2103932b332b93932b960811b604482015260640162000617565b816005600086868581811062000b675762000b6762001b30565b905060200201602081019062000b7e919062001968565b6001600160a01b031681526020810191909152604001600020805460ff191691151591909117905583838281811062000bbb5762000bbb62001b30565b905060200201602081019062000bd2919062001968565b6001600160a01b03167fcee386e683c69170e38d2eda9a03cbf2efe89b4dfeabd5288d99f2b143fb14508360405162000c0f911515815260200190565b60405180910390a28062000c238162001b5c565b91505062000aca565b50505050565b6001546001600160a01b0316331462000c5f5760405162461bcd60e51b8152600401620006179062001b0d565b6001600160a01b03821662000caa5760405162461bcd60e51b815260206004820152601060248201526f24b73b30b634b2103932b332b93932b960811b604482015260640162000617565b6001600160a01b038216600081815260056020908152604091829020805460ff191685151590811790915591519182527fcee386e683c69170e38d2eda9a03cbf2efe89b4dfeabd5288d99f2b143fb1450910160405180910390a25050565b6007602052816000526040600020818154811062000d2657600080fd5b6000918252602090912001546001600160a01b03169150829050565b6001546001600160a01b0316331462000d6f5760405162461bcd60e51b8152600401620006179062001b0d565b47801562000db4576001546040516001600160a01b039091169082156108fc029083906000818181858888f1935050505015801562000db2573d6000803e3d6000fd5b505b50565b6001546001600160a01b0316331462000de45760405162461bcd60e51b8152600401620006179062001b0d565b6001600160a01b03811662000e325760405162461bcd60e51b8152602060048201526013602482015272496e76616c696420666565206164647265737360681b604482015260640162000617565b600280546001600160a01b038381166001600160a01b031983168117909355604080519190921680825260208201939093527f8f93286d6f131e956d1aa672d3ecdc817f24efc20b223b0de5d591f454edc3479101620007ea565b6001600160a01b03881662000eda5760405162461bcd60e51b815260206004820152601260248201527124b73b30b634b21039b0b632903a37b5b2b760711b604482015260640162000617565b6000851162000f235760405162461bcd60e51b8152602060048201526014602482015273496e76616c6964206275796261636b207261746560601b604482015260640162000617565b6000841162000f6e5760405162461bcd60e51b8152602060048201526016602482015275125b9d985b1a59081cd95b1b1a5b99c8185b5bdd5b9d60521b604482015260640162000617565b6000831162000fb35760405162461bcd60e51b815260206004820152601060248201526f0496e76616c696420736f6674206361760841b604482015260640162000617565b42821162000ff95760405162461bcd60e51b8152602060048201526012602482015271496e76616c69642073746172742074696d6560701b604482015260640162000617565b8181116200103d5760405162461bcd60e51b815260206004820152601060248201526f496e76616c696420656e642074696d6560801b604482015260640162000617565b8515620010c2576001600160a01b03871615620010bc5760405162461bcd60e51b815260206004820152603660248201527f4e617469766520666169726c61756e63682073686f756c6420757365206164646044820152753932b9b9941814903337b9103130b9b2903a37b5b2b760511b606482015260840162000617565b6200112d565b6001600160a01b0387166200112d5760405162461bcd60e51b815260206004820152602a60248201527f455243323020666169726c61756e63682072657175697265732076616c6964206044820152693130b9b2903a37b5b2b760b11b606482015260840162000617565b5050505050505050565b60006200115060035434620015e390919063ffffffff16565b9050801562000db45762000db4338262001643565b6000338b8b8b8b8b8b8b8b8b8b6040516200118090620017ca565b6001600160a01b039b8c168152998b1660208b01529990971660408901529415156060880152608087019390935290151560a086015260c085015260e084015261010083015261012082015261014081019190915261016001604051809103906000f080158015620011f6573d6000803e3d6000fd5b509b9a5050505050505050505050565b60006200121a6064620008948686620014f4565b90506001600160a01b0386166323b872dd338762001239888662001767565b6040516001600160e01b031960e086901b1681526001600160a01b03938416600482015292909116602483015260448201526064016020604051808303816000875af11580156200128e573d6000803e3d6000fd5b505050506040513d601f19601f82011682018060405250810190620012b4919062001b7a565b506001600160a01b03821615801590620012e657506001600160a01b03821660009081526005602052604090205460ff165b15620013df5760006200130d606462000894600454600354620014f490919063ffffffff16565b6040519091506001600160a01b0384169082156108fc029083906000818181858888f1935050505015801562001347573d6000803e3d6000fd5b506002546003546001600160a01b03909116906108fc906200136a9084620015e3565b6040518115909202916000818181858888f1935050505015801562001393573d6000803e3d6000fd5b50826001600160a01b03167f339143a0e6309caafa5c4c55cd7b75d2e49115ce1e88b394e3376814b8507c1582604051620013d091815260200190565b60405180910390a2506200141e565b6002546003546040516001600160a01b039092169181156108fc0291906000818181858888f193505050501580156200141c573d6000803e3d6000fd5b505b505050505050565b6006805460018082019092557ff652222313e28459528d920b65115c16c04f3efc82aaedc97be59f3f377c0d3f0180546001600160a01b038981166001600160a01b0319928316811790935533600081815260076020908152604080832080549889018155835291819020909601805490941685179093558251898316815288151595810195909552918401869052606084018590528816927f579d91040d00e7ed9e05cfcbedab3fe013f1b36ff0d852f6847a2824087a17b39060800160405180910390a4505050505050565b60008262001505575060006200157e565b600062001513838562001b9a565b90508262001522858362001bbc565b146200157b5760405162461bcd60e51b815260206004820152602160248201527f536166654d6174683a206d756c7469706c69636174696f6e206f766572666c6f6044820152607760f81b606482015260840162000617565b90505b92915050565b6000808211620015d75760405162461bcd60e51b815260206004820152601a60248201527f536166654d6174683a206469766973696f6e206279207a65726f000000000000604482015260640162000617565b6200157b828462001bbc565b600082821115620016375760405162461bcd60e51b815260206004820152601e60248201527f536166654d6174683a207375627472616374696f6e206f766572666c6f770000604482015260640162000617565b6200157b828462001bdf565b80471015620016955760405162461bcd60e51b815260206004820152601d60248201527f416464726573733a20696e73756666696369656e742062616c616e6365000000604482015260640162000617565b6000826001600160a01b03168260405160006040518083038185875af1925050503d8060008114620016e4576040519150601f19603f3d011682016040523d82523d6000602084013e620016e9565b606091505b5050905080620017625760405162461bcd60e51b815260206004820152603a60248201527f416464726573733a20756e61626c6520746f2073656e642076616c75652c207260448201527f6563697069656e74206d61792068617665207265766572746564000000000000606482015260840162000617565b505050565b60008062001776838562001bf9565b9050838110156200157b5760405162461bcd60e51b815260206004820152601b60248201527f536166654d6174683a206164646974696f6e206f766572666c6f770000000000604482015260640162000617565b61384b8062001c1583390190565b80356001600160a01b0381168114620017f057600080fd5b919050565b801515811462000db457600080fd5b60008060008060008060008060008060006101608c8e0312156200182757600080fd5b620018328c620017d8565b9a506200184260208d01620017d8565b995060408c01356200185481620017f5565b985060608c0135975060808c01356200186d81620017f5565b965060a08c0135955060c08c0135945060e08c013593506101008c013592506101208c01359150620018a36101408d01620017d8565b90509295989b509295989b9093969950565b6000806000806000806000806000806101408b8d031215620018d657600080fd5b620018e18b620017d8565b9950620018f160208c01620017d8565b985060408b01356200190381620017f5565b975060608b0135965060808b01356200191c81620017f5565b999c989b50969995989760a0870135975060c08701359660e08101359650610100810135955061012001359350915050565b6000602082840312156200196157600080fd5b5035919050565b6000602082840312156200197b57600080fd5b6200157b82620017d8565b6020808252825182820181905260009190848201906040850190845b81811015620019c95783516001600160a01b031683529284019291840191600101620019a2565b50909695505050505050565b600080600060408486031215620019eb57600080fd5b833567ffffffffffffffff8082111562001a0457600080fd5b818601915086601f83011262001a1957600080fd5b81358181111562001a2957600080fd5b8760208260051b850101111562001a3f57600080fd5b6020928301955093505084013562001a5781620017f5565b809150509250925092565b6000806040838503121562001a7657600080fd5b62001a8183620017d8565b9150602083013562001a9381620017f5565b809150509250929050565b6000806040838503121562001ab257600080fd5b62001abd83620017d8565b946020939093013593505050565b60208082526022908201527f466169726c61756e63682072657175697265732031303025206c697175696469604082015261747960f01b606082015260800190565b6020808252600990820152682737ba1037bbb732b960b91b604082015260600190565b634e487b7160e01b600052603260045260246000fd5b634e487b7160e01b600052601160045260246000fd5b600060001982141562001b735762001b7362001b46565b5060010190565b60006020828403121562001b8d57600080fd5b81516200157b81620017f5565b600081600019048311821515161562001bb75762001bb762001b46565b500290565b60008262001bda57634e487b7160e01b600052601260045260246000fd5b500490565b60008282101562001bf45762001bf462001b46565b500390565b6000821982111562001c0f5762001c0f62001b46565b50019056fe60806040523480156200001157600080fd5b506040516200384b3803806200384b8339810160408190526200003491620006b3565b60016000556001600160a01b038b16620000855760405162461bcd60e51b815260206004820152600d60248201526c24b73b30b634b21037bbb732b960991b60448201526064015b60405180910390fd5b6001600160a01b038a16620000d25760405162461bcd60e51b815260206004820152601260248201527124b73b30b634b21039b0b632903a37b5b2b760711b60448201526064016200007c565b60008711620001245760405162461bcd60e51b815260206004820152601460248201527f496e76616c6964206275796261636b207261746500000000000000000000000060448201526064016200007c565b60008511620001765760405162461bcd60e51b815260206004820152601660248201527f496e76616c69642073656c6c696e6720616d6f756e740000000000000000000060448201526064016200007c565b60008411620001bb5760405162461bcd60e51b815260206004820152601060248201526f0496e76616c696420736f6674206361760841b60448201526064016200007c565b600083118015620001cd575060648311155b6200021b5760405162461bcd60e51b815260206004820152601960248201527f496e76616c6964206c69717569646974792070657263656e740000000000000060448201526064016200007c565b428211620002615760405162461bcd60e51b8152602060048201526012602482015271496e76616c69642073746172742074696d6560701b60448201526064016200007c565b818111620002a55760405162461bcd60e51b815260206004820152601060248201526f496e76616c696420656e642074696d6560801b60448201526064016200007c565b600180546001600160a01b03808e166001600160a01b03199283161790925560408051610140810182528d8416808252938d16602082018190528183018c9052606082018a905260808083018a905260a0830189905260c0830188905260e083018790528d15156101008481018290528d1515610120909501859052600280548816891790556003805490971690931790955560048d905560058b905560068a9055600789905560088890556009879055600a80549390920261ff001990951661ffff19909316929092179390931790925580519182018082526306fdde0360e01b9052518c9282916306fdde03906084808501916000918187030181865afa158015620003b7573d6000803e3d6000fd5b505050506040513d6000823e601f3d908101601f19168201604052620003e1919081019062000776565b8152602001826001600160a01b03166395d89b416040518163ffffffff1660e01b8152600401600060405180830381865afa15801562000425573d6000803e3d6000fd5b505050506040513d6000823e601f3d908101601f191682016040526200044f919081019062000776565b8152602001826001600160a01b03166318160ddd6040518163ffffffff1660e01b8152600401602060405180830381865afa15801562000493573d6000803e3d6000fd5b505050506040513d601f19601f82011682018060405250810190620004b9919062000852565b8152602001826001600160a01b031663313ce5676040518163ffffffff1660e01b8152600401602060405180830381865afa158015620004fd573d6000803e3d6000fd5b505050506040513d601f19601f820116820180604052508101906200052391906200086c565b60ff16905280518051600b916200054091839160200190620005df565b5060208281015180516200055b9260018501920190620005df565b5060408281015160028301556060909201516003909101805460ff191660ff9092169190911790556015805462ffffff60a81b191661017760ab1b1790555130906001600160a01b038e16907f5a67b4bb8e7100385d5cced26a5163e0fff0e6b979e8b57a62294060b9205b0290600090a3505050505050505050505050620008d5565b828054620005ed9062000898565b90600052602060002090601f0160209004810192826200061157600085556200065c565b82601f106200062c57805160ff19168380011785556200065c565b828001600101855582156200065c579182015b828111156200065c5782518255916020019190600101906200063f565b506200066a9291506200066e565b5090565b5b808211156200066a57600081556001016200066f565b80516001600160a01b03811681146200069d57600080fd5b919050565b805180151581146200069d57600080fd5b60008060008060008060008060008060006101608c8e031215620006d657600080fd5b620006e18c62000685565b9a50620006f160208d0162000685565b99506200070160408d0162000685565b98506200071160608d01620006a2565b975060808c015196506200072860a08d01620006a2565b955060c08c0151945060e08c015193506101008c015192506101208c015191506101408c015190509295989b509295989b9093969950565b634e487b7160e01b600052604160045260246000fd5b600060208083850312156200078a57600080fd5b82516001600160401b0380821115620007a257600080fd5b818501915085601f830112620007b757600080fd5b815181811115620007cc57620007cc62000760565b604051601f8201601f19908116603f01168101908382118183101715620007f757620007f762000760565b8160405282815288868487010111156200081057600080fd5b600093505b8284101562000834578484018601518185018701529285019262000815565b82841115620008465760008684830101525b98975050505050505050565b6000602082840312156200086557600080fd5b5051919050565b6000602082840312156200087f57600080fd5b815160ff811681146200089157600080fd5b9392505050565b600181811c90821680620008ad57607f821691505b60208210811415620008cf57634e487b7160e01b600052602260045260246000fd5b50919050565b612f6680620008e56000396000f3fe6080604052600436106102975760003560e01c806384ae2bc61161015a578063acfb2355116100c1578063ca1a961d1161007a578063ca1a961d146108a1578063da13d1d2146108c1578063dedae247146108d6578063e816d2ad146108ec578063f2fde38b1461090c578063f5ae497a1461092c57600080fd5b8063acfb23551461080c578063ae5e640614610821578063b3f05b9714610841578063b5545a3c14610860578063c59ee1dc14610875578063c943dc401461088b57600080fd5b80639a2f1f93116101135780639a2f1f93146106c25780639a82a09a146106e25780639b19251a146106fc5780639fa362401461072c578063a1634b14146107d4578063a24bcf46146107ec57600080fd5b806384ae2bc6146106175780638afbf6691461062d5780638b754bce146106425780638da5cb5b14610657578063939c44561461067757806397a993aa1461068c57600080fd5b80634e69d560116101fe5780636882a888116101b75780636882a888146105505780636addb6631461057a578063791b98bc1461059f5780637f649783146105c457806382cf114c146105e4578063845c93061461060457600080fd5b80634e69d560146104c05780634e6fd6c4146104e2578063529d6878146104f8578063548db1741461050e578063591daa5f1461052e578063668f6b211461053657600080fd5b80631727533f116102505780631727533f146103f3578063362f04c01461042a57806336acbe6b1461044e5780633af32abf1461046457806348c54b9d146104945780634bb278f3146104ab57600080fd5b806305a30fee146102a357806309e69ede146102da578063123702e214610336578063150b7a021461036e5780631555f10e146103b357806315a88d22146103d357600080fd5b3661029e57005b600080fd5b3480156102af57600080fd5b506102c36102be36600461293d565b61094c565b6040516102d19291906129c1565b60405180910390f35b3480156102e657600080fd5b506103196102f53660046129e4565b601d6020526000908152604090208054600182015460029092015490919060ff1683565b6040805193845260208401929092521515908201526060016102d1565b34801561034257600080fd5b50601954610356906001600160a01b031681565b6040516001600160a01b0390911681526020016102d1565b34801561037a57600080fd5b5061039a610389366004612a01565b630a85bd0160e11b95945050505050565b6040516001600160e01b031990911681526020016102d1565b3480156103bf57600080fd5b50601754610356906001600160a01b031681565b3480156103df57600080fd5b50601b54610356906001600160a01b031681565b3480156103ff57600080fd5b5060155461041690600160a81b900462ffffff1681565b60405162ffffff90911681526020016102d1565b34801561043657600080fd5b5061044060105481565b6040519081526020016102d1565b34801561045a57600080fd5b5061044060145481565b34801561047057600080fd5b5061048461047f3660046129e4565b610a33565b60405190151581526020016102d1565b3480156104a057600080fd5b506104a9610a6c565b005b3480156104b757600080fd5b506104a9610c9b565b3480156104cc57600080fd5b506104d5610fed565b6040516102d19190612ab6565b3480156104ee57600080fd5b5061035661dead81565b34801561050457600080fd5b5061044060165481565b34801561051a57600080fd5b506104a9610529366004612ade565b61104d565b6104a96110ee565b34801561054257600080fd5b506015546104849060ff1681565b34801561055c57600080fd5b50610567620d89e881565b60405160029190910b81526020016102d1565b34801561058657600080fd5b5061058f611200565b6040516102d19493929190612b53565b3480156105ab57600080fd5b506015546103569061010090046001600160a01b031681565b3480156105d057600080fd5b506104a96105df366004612ade565b611330565b3480156105f057600080fd5b506104a96105ff3660046129e4565b6113cc565b6104a9610612366004612b93565b611467565b34801561062357600080fd5b50610440601c5481565b34801561063957600080fd5b506104a96115e6565b34801561064e57600080fd5b5061044061185a565b34801561066357600080fd5b50600154610356906001600160a01b031681565b34801561068357600080fd5b506104406118a3565b34801561069857600080fd5b506104406106a73660046129e4565b6001600160a01b03166000908152601d602052604090205490565b3480156106ce57600080fd5b50601854610356906001600160a01b031681565b3480156106ee57600080fd5b506011546104849060ff1681565b34801561070857600080fd5b506104846107173660046129e4565b601e6020526000908152604090205460ff1681565b34801561073857600080fd5b50600254600354600454600554600654600754600854600954600a5461077b986001600160a01b0390811698169695949392919060ff808216916101009004168a565b604080516001600160a01b039b8c1681529a90991660208b0152978901969096526060880194909452608087019290925260a086015260c085015260e084015215156101008301521515610120820152610140016102d1565b3480156107e057600080fd5b50610567620d89e71981565b3480156107f857600080fd5b50610440610807366004612b93565b6118c9565b34801561081857600080fd5b50610440611915565b34801561082d57600080fd5b506104a961083c36600461293d565b6119f6565b34801561084d57600080fd5b5060115461048490610100900460ff1681565b34801561086c57600080fd5b506104a9611a6e565b34801561088157600080fd5b50610440600f5481565b34801561089757600080fd5b50610440601a5481565b3480156108ad57600080fd5b506104a96108bc366004612b93565b611c2c565b3480156108cd57600080fd5b506104a9611c83565b3480156108e257600080fd5b5061044060125481565b3480156108f857600080fd5b506104a9610907366004612bac565b611d3d565b34801561091857600080fd5b506104a96109273660046129e4565b611eee565b34801561093857600080fd5b50601354610356906001600160a01b031681565b60006060600161095a610fed565b600581111561096b5761096b612aa0565b146109a6575050604080518082019091526015815274466169726c61756e6368206e6f742061637469766560581b6020820152600090610a2c565b6109af84610a33565b6109e357505060408051808201909152600f81526e139bdd081dda1a5d195b1a5cdd1959608a1b6020820152600090610a2c565b82610a1757505060408051808201909152600e81526d125b9d985b1a5908185b5bdd5b9d60921b6020820152600090610a2c565b50506040805160208101909152600081526001905b9250929050565b600a54600090610100900460ff16610a4d57506001919050565b506001600160a01b03166000908152601e602052604090205460ff1690565b60026000541415610a985760405162461bcd60e51b8152600401610a8f90612bff565b60405180910390fd5b60026000556005610aa7610fed565b6005811115610ab857610ab8612aa0565b14610af55760405162461bcd60e51b815260206004820152600d60248201526c139bdd08199a5b985b1a5e9959609a1b6044820152606401610a8f565b601254421015610b3d5760405162461bcd60e51b8152602060048201526013602482015272151bdad95b9cc81cdd1a5b1b081b1bd8dad959606a1b6044820152606401610a8f565b336000908152601d602052604090208054610b925760405162461bcd60e51b8152602060048201526015602482015274139bc818dbdb9d1c9a589d5d1a5bdb88199bdd5b99605a1b6044820152606401610a8f565b600281015460ff1615610bd95760405162461bcd60e51b815260206004820152600f60248201526e105b1c9958591e4818db185a5b5959608a1b6044820152606401610a8f565b6000610be882600001546118c9565b905060008111610c2f5760405162461bcd60e51b81526020600482015260126024820152714e6f20746f6b656e7320746f20636c61696d60701b6044820152606401610a8f565b60018083018290556002808401805460ff191690921790915554610c5d906001600160a01b03163383611f84565b60405181815233907f896e034966eaaf1adc54acc0f257056febbd300c9e47182cf761982cf1f5e4309060200160405180910390a250506001600055565b60026000541415610cbe5760405162461bcd60e51b8152600401610a8f90612bff565b60026000556001546001600160a01b03163314610ced5760405162461bcd60e51b8152600401610a8f90612c36565b601154610100900460ff1615610d395760405162461bcd60e51b8152602060048201526011602482015270105b1c9958591e48199a5b985b1a5e9959607a1b6044820152606401610a8f565b6002610d43610fed565b6005811115610d5457610d54612aa0565b14610da15760405162461bcd60e51b815260206004820152601960248201527f466169726c61756e6368206e6f74207375636365737366756c000000000000006044820152606401610a8f565b60155461010090046001600160a01b0316610dfe5760405162461bcd60e51b815260206004820152601860248201527f506f736974696f6e206d616e61676572206e6f742073657400000000000000006044820152606401610a8f565b6018546001600160a01b0316610e565760405162461bcd60e51b815260206004820152601860248201527f4c69717569646974792068656c706572206e6f742073657400000000000000006044820152606401610a8f565b6000610e7d6064610e77600260050154600f5461209f90919063ffffffff16565b90612127565b600e54909150600090610eb590610e989060ff166012612c6f565b610ea390600a612d76565b610e77610eae61185a565b859061209f565b6002546040516370a0823160e01b815230600482015291925082916001600160a01b03909116906370a0823190602401602060405180830381865afa158015610f02573d6000803e3d6000fd5b505050506040513d601f19601f82011682018060405250810190610f269190612d85565b1015610f7e5760405162461bcd60e51b815260206004820152602160248201527f496e73756666696369656e7420746f6b656e7320666f72206c697175696469746044820152607960f81b6064820152608401610a8f565b610f888282612182565b6011805461ff001916610100179055601a54610fa59042906124b9565b601255600f5460408051918252602082018490527f65c92866b67fc850ec21d591fbc2d967ea10d00f4600baec8b6e6b744d89b2ca910160405180910390a150506001600055565b60115460009060ff16156110015750600490565b601154610100900460ff16156110175750600590565b6008544210156110275750600090565b60095442116110365750600190565b600654600f54106110475750600290565b50600390565b6001546001600160a01b031633146110775760405162461bcd60e51b8152600401610a8f90612c36565b60005b818110156110e9576000601e600085858581811061109a5761109a612d9e565b90506020020160208101906110af91906129e4565b6001600160a01b031681526020810191909152604001600020805460ff1916911515919091179055806110e181612db4565b91505061107a565b505050565b601b546001600160a01b03166111385760405162461bcd60e51b815260206004820152600f60248201526e139bc81c9959995c9c985b081cd95d608a1b6044820152606401610a8f565b601c5434146111825760405162461bcd60e51b8152602060048201526016602482015275496e636f727265637420726566657272616c2066656560501b6044820152606401610a8f565b601b546040516001600160a01b03909116903480156108fc02916000818181858888f193505050501580156111bb573d6000803e3d6000fd5b50601b546040513481526001600160a01b03909116907f339143a0e6309caafa5c4c55cd7b75d2e49115ce1e88b394e3376814b8507c159060200160405180910390a2565b600b8054819061120f90612dcf565b80601f016020809104026020016040519081016040528092919081815260200182805461123b90612dcf565b80156112885780601f1061125d57610100808354040283529160200191611288565b820191906000526020600020905b81548152906001019060200180831161126b57829003601f168201915b50505050509080600101805461129d90612dcf565b80601f01602080910402602001604051908101604052809291908181526020018280546112c990612dcf565b80156113165780601f106112eb57610100808354040283529160200191611316565b820191906000526020600020905b8154815290600101906020018083116112f957829003601f168201915b50505050600283015460039093015491929160ff16905084565b6001546001600160a01b0316331461135a5760405162461bcd60e51b8152600401610a8f90612c36565b60005b818110156110e9576001601e600085858581811061137d5761137d612d9e565b905060200201602081019061139291906129e4565b6001600160a01b031681526020810191909152604001600020805460ff1916911515919091179055806113c481612db4565b91505061135d565b6001546001600160a01b031633146113f65760405162461bcd60e51b8152600401610a8f90612c36565b6001600160a01b0381166114455760405162461bcd60e51b8152602060048201526016602482015275496e76616c69642070726f666974206164647265737360501b6044820152606401610a8f565b601980546001600160a01b0319166001600160a01b0392909216919091179055565b6002600054141561148a5760405162461bcd60e51b8152600401610a8f90612bff565b60026000556001611499610fed565b60058111156114aa576114aa612aa0565b146114ef5760405162461bcd60e51b8152602060048201526015602482015274466169726c61756e6368206e6f742061637469766560581b6044820152606401610a8f565b600a5460009060ff166115025781611504565b345b9050600080611513338461094c565b915091508181906115375760405162461bcd60e51b8152600401610a8f9190612e04565b50336000908152601d60205260409020805461155f5760105461155b9060016124b9565b6010555b805461156b90856124b9565b8155600f5461157a90856124b9565b600f55600a5460ff1661159f5760035461159f906001600160a01b0316333087612518565b604080518581526000602082015233917f64ceaa25376a606505a20223863437c73f24c3d44eca9912c49197b4aea536a4910160405180910390a250506001600055505050565b600260005414156116095760405162461bcd60e51b8152600401610a8f90612bff565b60026000556001546001600160a01b031633146116385760405162461bcd60e51b8152600401610a8f90612c36565b6005611642610fed565b600581111561165357611653612aa0565b146116905760405162461bcd60e51b815260206004820152600d60248201526c139bdd08199a5b985b1a5e9959609a1b6044820152606401610a8f565b6002546040516370a0823160e01b81523060048201526000916001600160a01b0316906370a0823190602401602060405180830381865afa1580156116d9573d6000803e3d6000fd5b505050506040513d601f19601f820116820180604052508101906116fd9190612d85565b9050801561176557600254600154611722916001600160a01b03908116911683611f84565b6001546040518281526001600160a01b03909116907f1e563d9e18af5db6fd44fc692df8325fdf25841bc9ba0ec5ea17f128b12766e39060200160405180910390a25b600a5460009060ff166117e3576003546040516370a0823160e01b81523060048201526001600160a01b03909116906370a0823190602401602060405180830381865afa1580156117ba573d6000803e3d6000fd5b505050506040513d601f19601f820116820180604052508101906117de9190612d85565b6117e5565b475b905080156118515760405162461bcd60e51b815260206004820152603360248201527f4261736520746f6b656e73206d7573742073746179206c6f636b6564202d20666044820152726169726c61756e6368207072696e6369706c6560681b6064820152608401610a8f565b50506001600055565b6000600f546000141561186d5750600090565b600f54600e5461189e9190610e779061188a9060ff166012612c6f565b61189590600a612d76565b6005549061209f565b905090565b6006546000906118b35750600090565b600654600f5461189e9190610e7790606461209f565b6000806118d461185a565b9050806118e45750600092915050565b600e5461190e906118f99060ff166012612c6f565b61190490600a612d76565b610e77858461209f565b9392505050565b600080611920610fed565b9050600081600581111561193657611936612aa0565b141561194457600091505090565b600181600581111561195857611958612aa0565b141561196657600191505090565b600281600581111561197a5761197a612aa0565b141561198857600291505090565b600381600581111561199c5761199c612aa0565b14156119aa57600391505090565b60048160058111156119be576119be612aa0565b14156119cc57600491505090565b60058160058111156119e0576119e0612aa0565b14156119ee57600591505090565b600091505090565b6001546001600160a01b03163314611a205760405162461bcd60e51b8152600401610a8f90612c36565b601154610100900460ff1615611a485760405162461bcd60e51b8152600401610a8f90612e17565b601b80546001600160a01b0319166001600160a01b039390931692909217909155601c55565b60026000541415611a915760405162461bcd60e51b8152600401610a8f90612bff565b60026000908155611aa0610fed565b90506003816005811115611ab657611ab6612aa0565b1480611ad357506004816005811115611ad157611ad1612aa0565b145b611b175760405162461bcd60e51b815260206004820152601560248201527411985a5c9b185d5b98da081b9bdd0819985a5b1959605a1b6044820152606401610a8f565b336000908152601d602052604090208054611b745760405162461bcd60e51b815260206004820152601960248201527f4e6f20636f6e747269627574696f6e20746f20726566756e64000000000000006044820152606401610a8f565b600281015460ff1615611bbb5760405162461bcd60e51b815260206004820152600f60248201526e105b1c9958591e4818db185a5b5959608a1b6044820152606401610a8f565b805460028201805460ff19166001179055600354600a54611bed916001600160a01b0316903390849060ff1615612648565b60405181815233907f358fe4192934d3bf28ae181feda1f4bd08ca67f5e2fad55582cce5eb67304ae99060200160405180910390a25050600160005550565b6001546001600160a01b03163314611c565760405162461bcd60e51b8152600401610a8f90612c36565b601154610100900460ff1615611c7e5760405162461bcd60e51b8152600401610a8f90612e17565b601a55565b6001546001600160a01b03163314611cad5760405162461bcd60e51b8152600401610a8f90612c36565b601154610100900460ff1615611d055760405162461bcd60e51b815260206004820181905260248201527f43616e6e6f742063616e63656c2061667465722066696e616c697a6174696f6e6044820152606401610a8f565b6011805460ff191660011790556040517f37171b6dca574471fd4740e66a760632009159ed258d1179ee465e01b91f933090600090a1565b6001546001600160a01b03163314611d675760405162461bcd60e51b8152600401610a8f90612c36565b601154610100900460ff1615611d8f5760405162461bcd60e51b8152600401610a8f90612e17565b6001600160a01b038316611de55760405162461bcd60e51b815260206004820152601860248201527f496e76616c696420706f736974696f6e206d616e6167657200000000000000006044820152606401610a8f565b6001600160a01b038116611e2c5760405162461bcd60e51b815260206004820152600e60248201526d24b73b30b634b2103432b63832b960911b6044820152606401610a8f565b8162ffffff166101f41480611e4757508162ffffff16610bb8145b80611e5857508162ffffff16612710145b611e975760405162461bcd60e51b815260206004820152601060248201526f24b73b30b634b2103332b2903a34b2b960811b6044820152606401610a8f565b60158054610100600160c01b0319166101006001600160a01b039586160262ffffff60a81b191617600160a81b62ffffff949094169390930292909217909155601880546001600160a01b03191691909216179055565b6001546001600160a01b03163314611f185760405162461bcd60e51b8152600401610a8f90612c36565b6001600160a01b038116611f625760405162461bcd60e51b815260206004820152601160248201527024b73b30b634b2103732bb9037bbb732b960791b6044820152606401610a8f565b600180546001600160a01b0319166001600160a01b0392909216919091179055565b604080516001600160a01b038481166024830152604480830185905283518084039091018152606490920183526020820180516001600160e01b031663a9059cbb60e01b1790529151600092839290871691611fe09190612e4c565b6000604051808303816000865af19150503d806000811461201d576040519150601f19603f3d011682016040523d82523d6000602084013e612022565b606091505b509150915081801561204c57508051158061204c57508080602001905181019061204c9190612e68565b6120985760405162461bcd60e51b815260206004820152601f60248201527f5472616e7366657248656c7065723a205452414e534645525f4641494c4544006044820152606401610a8f565b5050505050565b6000826120ae57506000612121565b60006120ba8385612e8a565b9050826120c78583612ea9565b1461211e5760405162461bcd60e51b815260206004820152602160248201527f536166654d6174683a206d756c7469706c69636174696f6e206f766572666c6f6044820152607760f81b6064820152608401610a8f565b90505b92915050565b60008082116121785760405162461bcd60e51b815260206004820152601a60248201527f536166654d6174683a206469766973696f6e206279207a65726f0000000000006044820152606401610a8f565b61211e8284612ea9565b600080601560019054906101000a90046001600160a01b03166001600160a01b0316634aa4a4fc6040518163ffffffff1660e01b8152600401602060405180830381865afa1580156121d8573d6000803e3d6000fd5b505050506040513d601f19601f820116820180604052508101906121fc9190612ecb565b600a5490915060009060ff1661221d576003546001600160a01b031661221f565b815b6002549091506000906001600160a01b0380841691161061224d5760025482906001600160a01b031661225b565b6002546001600160a01b0316825b5060025490915060009081906001600160a01b03808516911614612280578787612283565b86885b9150915061229182826127a3565b60025460185460405163095ea7b360e01b81526001600160a01b039182166004820152602481018b905292985016955063095ea7b3945060440192506122d5915050565b6020604051808303816000875af11580156122f4573d6000803e3d6000fd5b505050506040513d601f19601f820116820180604052508101906123189190612e68565b50600a5460009060ff1661232d57600061232f565b835b601854600254601554604051637eea584b60e01b81526001600160a01b03928316600482015260248101889052600160a81b90910462ffffff166044820152858216606482015292935060009283929190911690637eea584b908590608401604080518083038185885af11580156123ab573d6000803e3d6000fd5b50505050506040513d601f19601f820116820180604052508101906123d09190612ee8565b6016829055601780546001600160a01b03199081166001600160a01b0384811691821790935560138054909216179055601554604051632142170760e11b815230600482015261dead60248201526044810185905293955091935061010090910416906342842e0e90606401600060405180830381600087803b15801561245657600080fd5b505af115801561246a573d6000803e3d6000fd5b50506015805460ff1916600117905550506040516001600160a01b0382169083907fae16e25f0f6a18c4084cbb31aeadfd354e2283472ddb2f0dd1e6b6f3e55819ed90600090a3505050505050565b6000806124c68385612f18565b90508381101561211e5760405162461bcd60e51b815260206004820152601b60248201527f536166654d6174683a206164646974696f6e206f766572666c6f7700000000006044820152606401610a8f565b604080516001600160a01b0385811660248301528481166044830152606480830185905283518084039091018152608490920183526020820180516001600160e01b03166323b872dd60e01b179052915160009283929088169161257c9190612e4c565b6000604051808303816000865af19150503d80600081146125b9576040519150601f19603f3d011682016040523d82523d6000602084013e6125be565b606091505b50915091508180156125e85750805115806125e85750808060200190518101906125e89190612e68565b6126405760405162461bcd60e51b8152602060048201526024808201527f5472616e7366657248656c7065723a205452414e534645525f46524f4d5f46416044820152631253115160e21b6064820152608401610a8f565b505050505050565b80612689576040516001600160a01b0384169083156108fc029084906000818181858888f19350505050158015612683573d6000803e3d6000fd5b5061279d565b604080516001600160a01b038581166024830152604480830186905283518084039091018152606490920183526020820180516001600160e01b031663a9059cbb60e01b17905291516000928392908816916126e59190612e4c565b6000604051808303816000865af19150503d8060008114612722576040519150601f19603f3d011682016040523d82523d6000602084013e612727565b606091505b50915091508180156127515750805115806127515750808060200190518101906127519190612e68565b6126405760405162461bcd60e51b815260206004820152601f60248201527f5472616e7366657248656c7065723a205452414e534645525f4641494c4544006044820152606401610a8f565b50505050565b600080831180156127b45750600082115b6127f25760405162461bcd60e51b815260206004820152600f60248201526e496e76616c696420616d6f756e747360881b6044820152606401610a8f565b60006127fd836128be565b9050600061280a856128be565b9050600081116128545760405162461bcd60e51b81526020600482015260156024820152747371727428616d6f756e743029206973207a65726f60581b6044820152606401610a8f565b600061286482606085901b612ea9565b90506001600160a01b038111156128b55760405162461bcd60e51b8152602060048201526015602482015274737172745072696365583936206f766572666c6f7760581b6044820152606401610a8f565b95945050505050565b6000816128cd57506000919050565b600060026128dc846001612f18565b6128e69190612ea9565b90508291505b8181101561291f579050806002816129048186612ea9565b61290e9190612f18565b6129189190612ea9565b90506128ec565b50919050565b6001600160a01b038116811461293a57600080fd5b50565b6000806040838503121561295057600080fd5b823561295b81612925565b946020939093013593505050565b60005b8381101561298457818101518382015260200161296c565b8381111561279d5750506000910152565b600081518084526129ad816020860160208601612969565b601f01601f19169290920160200192915050565b82151581526040602082015260006129dc6040830184612995565b949350505050565b6000602082840312156129f657600080fd5b813561211e81612925565b600080600080600060808688031215612a1957600080fd5b8535612a2481612925565b94506020860135612a3481612925565b935060408601359250606086013567ffffffffffffffff80821115612a5857600080fd5b818801915088601f830112612a6c57600080fd5b813581811115612a7b57600080fd5b896020828501011115612a8d57600080fd5b9699959850939650602001949392505050565b634e487b7160e01b600052602160045260246000fd5b6020810160068310612ad857634e487b7160e01b600052602160045260246000fd5b91905290565b60008060208385031215612af157600080fd5b823567ffffffffffffffff80821115612b0957600080fd5b818501915085601f830112612b1d57600080fd5b813581811115612b2c57600080fd5b8660208260051b8501011115612b4157600080fd5b60209290920196919550909350505050565b608081526000612b666080830187612995565b8281036020840152612b788187612995565b91505083604083015260ff8316606083015295945050505050565b600060208284031215612ba557600080fd5b5035919050565b600080600060608486031215612bc157600080fd5b8335612bcc81612925565b9250602084013562ffffff81168114612be457600080fd5b91506040840135612bf481612925565b809150509250925092565b6020808252601f908201527f5265656e7472616e637947756172643a207265656e7472616e742063616c6c00604082015260600190565b6020808252600990820152682737ba1037bbb732b960b91b604082015260600190565b634e487b7160e01b600052601160045260246000fd5b600060ff821660ff841680821015612c8957612c89612c59565b90039392505050565b600181815b80851115612ccd578160001904821115612cb357612cb3612c59565b80851615612cc057918102915b93841c9390800290612c97565b509250929050565b600082612ce457506001612121565b81612cf157506000612121565b8160018114612d075760028114612d1157612d2d565b6001915050612121565b60ff841115612d2257612d22612c59565b50506001821b612121565b5060208310610133831016604e8410600b8410161715612d50575081810a612121565b612d5a8383612c92565b8060001904821115612d6e57612d6e612c59565b029392505050565b600061211e60ff841683612cd5565b600060208284031215612d9757600080fd5b5051919050565b634e487b7160e01b600052603260045260246000fd5b6000600019821415612dc857612dc8612c59565b5060010190565b600181811c90821680612de357607f821691505b6020821081141561291f57634e487b7160e01b600052602260045260246000fd5b60208152600061211e6020830184612995565b6020808252818101527f43616e6e6f74206368616e67652061667465722066696e616c697a6174696f6e604082015260600190565b60008251612e5e818460208701612969565b9190910192915050565b600060208284031215612e7a57600080fd5b8151801515811461211e57600080fd5b6000816000190483118215151615612ea457612ea4612c59565b500290565b600082612ec657634e487b7160e01b600052601260045260246000fd5b500490565b600060208284031215612edd57600080fd5b815161211e81612925565b60008060408385031215612efb57600080fd5b825191506020830151612f0d81612925565b809150509250929050565b60008219821115612f2b57612f2b612c59565b50019056fea264697066735822122051766cf83e0115fec38b335da076a7afa23f842f1a60d2806a3a6aac661cb30e64736f6c634300080c0033a2646970667358221220bc4b57a3a5623fd08ed57746beb13265dce9d5df6768f27a4324d98a1b98dc0a64736f6c634300080c0033",
  "linkReferences": {},
  "deployedLinkReferences": {}
}