{
  "_format": "hh-sol-artifact-1",
  "contractName": "PresaleV3",
  "sourceName": "contracts/presale/PresaleV3.sol",
  "abi": [
    {
      "inputs": [
        {
          "internalType": "address",
          "name": "_owner",
          "type": "address"
        },
        {
          "internalType": "address",
          "name": "_saleToken",
          "type": "address"
        },
        {
          "internalType": "address",
          "name": "_baseToken",
          "type": "address"
        },
        {
          "internalType": "uint256",
          "name": "_tokenRate",
          "type": "uint256"
        },
        {
          "internalType": "uint256",
          "name": "_liquidityRate",
          "type": "uint256"
        },
        {
          "internalType": "uint256",
          "name": "_raiseMin",
          "type": "uint256"
        },
        {
          "internalType": "uint256",
          "name": "_raiseMax",
          "type": "uint256"
        },
        {
          "internalType": "uint256",
          "name": "_softCap",
          "type": "uint256"
        },
        {
          "internalType": "uint256",
          "name": "_hardCap",
          "type": "uint256"
        },
        {
          "internalType": "uint256",
          "name": "_liquidityPercent",
          "type": "uint256"
        },
        {
          "internalType": "uint256",
          "name": "_presaleStart",
          "type": "uint256"
        },
        {
          "internalType": "uint256",
          "name": "_presaleEnd",
          "type": "uint256"
        }
      ],
      "stateMutability": "nonpayable",
      "type": "constructor"
    },
    {
      "anonymous": false,
      "inputs": [
        {
          "indexed": true,
          "internalType": "address",
          "name": "lpToken",
          "type": "address"
        },
        {
          "indexed": false,
          "internalType": "uint256",
          "name": "amount",
          "type": "uint256"
        },
        {
          "indexed": false,
          "internalType": "uint256",
          "name": "unlockTime",
          "type": "uint256"
        }
      ],
      "name": "LPTokensLocked",
      "type": "event"
    },
    {
      "anonymous": false,
      "inputs": [
        {
          "indexed": true,
          "internalType": "address",
          "name": "lpToken",
          "type": "address"
        },
        {
          "indexed": false,
          "internalType": "uint256",
          "name": "amount",
          "type": "uint256"
        },
        {
          "indexed": false,
          "internalType": "address",
          "name": "recipient",
          "type": "address"
        }
      ],
      "name": "LPTokensWithdrawn",
      "type": "event"
    },
    {
      "anonymous": false,
      "inputs": [
        {
          "indexed": true,
          "internalType": "address",
          "name": "user",
          "type": "address"
        },
        {
          "indexed": false,
          "internalType": "uint256",
          "name": "baseAmount",
          "type": "uint256"
        },
        {
          "indexed": false,
          "internalType": "uint256",
          "name": "tokenAmount",
          "type": "uint256"
        }
      ],
      "name": "Participated",
      "type": "event"
    },
    {
      "anonymous": false,
      "inputs": [
        {
          "indexed": true,
          "internalType": "uint256",
          "name": "tokenId",
          "type": "uint256"
        },
        {
          "indexed": true,
          "internalType": "address",
          "name": "pool",
          "type": "address"
        },
        {
          "indexed": false,
          "internalType": "uint256",
          "name": "unlockTime",
          "type": "uint256"
        }
      ],
      "name": "PositionLocked",
      "type": "event"
    },
    {
      "anonymous": false,
      "inputs": [
        {
          "indexed": true,
          "internalType": "uint256",
          "name": "tokenId",
          "type": "uint256"
        },
        {
          "indexed": true,
          "internalType": "address",
          "name": "recipient",
          "type": "address"
        }
      ],
      "name": "PositionWithdrawn",
      "type": "event"
    },
    {
      "anonymous": false,
      "inputs": [],
      "name": "PresaleCancelled",
      "type": "event"
    },
    {
      "anonymous": false,
      "inputs": [
        {
          "indexed": true,
          "internalType": "address",
          "name": "owner",
          "type": "address"
        },
        {
          "indexed": true,
          "internalType": "address",
          "name": "presale",
          "type": "address"
        }
      ],
      "name": "PresaleCreated",
      "type": "event"
    },
    {
      "anonymous": false,
      "inputs": [
        {
          "indexed": false,
          "internalType": "uint256",
          "name": "raisedAmount",
          "type": "uint256"
        },
        {
          "indexed": false,
          "internalType": "uint256",
          "name": "liquidityAmount",
          "type": "uint256"
        }
      ],
      "name": "PresaleFinalized",
      "type": "event"
    },
    {
      "anonymous": false,
      "inputs": [
        {
          "indexed": true,
          "internalType": "address",
          "name": "user",
          "type": "address"
        },
        {
          "indexed": false,
          "internalType": "uint256",
          "name": "amount",
          "type": "uint256"
        }
      ],
      "name": "RefundClaimed",
      "type": "event"
    },
    {
      "anonymous": false,
      "inputs": [
        {
          "indexed": true,
          "internalType": "address",
          "name": "owner",
          "type": "address"
        },
        {
          "indexed": false,
          "internalType": "uint256",
          "name": "amount",
          "type": "uint256"
        }
      ],
      "name": "RemainingFundsWithdrawn",
      "type": "event"
    },
    {
      "anonymous": false,
      "inputs": [
        {
          "indexed": true,
          "internalType": "address",
          "name": "user",
          "type": "address"
        },
        {
          "indexed": false,
          "internalType": "uint256",
          "name": "amount",
          "type": "uint256"
        }
      ],
      "name": "TokensClaimed",
      "type": "event"
    },
    {
      "inputs": [],
      "name": "DEAD_ADDRESS",
      "outputs": [
        {
          "internalType": "address",
          "name": "",
          "type": "address"
        }
      ],
      "stateMutability": "view",
      "type": "function"
    },
    {
      "inputs": [],
      "name": "FOREVER_LOCK",
      "outputs": [
        {
          "internalType": "uint256",
          "name": "",
          "type": "uint256"
        }
      ],
      "stateMutability": "view",
      "type": "function"
    },
    {
      "inputs": [],
      "name": "MAX_TICK",
      "outputs": [
        {
          "internalType": "int24",
          "name": "",
          "type": "int24"
        }
      ],
      "stateMutability": "view",
      "type": "function"
    },
    {
      "inputs": [],
      "name": "MIN_LP_LOCK_TIME",
      "outputs": [
        {
          "internalType": "uint256",
          "name": "",
          "type": "uint256"
        }
      ],
      "stateMutability": "view",
      "type": "function"
    },
    {
      "inputs": [],
      "name": "MIN_TICK",
      "outputs": [
        {
          "internalType": "int24",
          "name": "",
          "type": "int24"
        }
      ],
      "stateMutability": "view",
      "type": "function"
    },
    {
      "inputs": [
        {
          "internalType": "address[]",
          "name": "users",
          "type": "address[]"
        },
        {
          "internalType": "bool",
          "name": "isPermanent",
          "type": "bool"
        }
      ],
      "name": "addToWhitelist",
      "outputs": [],
      "stateMutability": "nonpayable",
      "type": "function"
    },
    {
      "inputs": [
        {
          "internalType": "address",
          "name": "",
          "type": "address"
        }
      ],
      "name": "buyers",
      "outputs": [
        {
          "internalType": "uint256",
          "name": "baseContribution",
          "type": "uint256"
        },
        {
          "internalType": "uint256",
          "name": "tokenAllocation",
          "type": "uint256"
        },
        {
          "internalType": "bool",
          "name": "claimed",
          "type": "bool"
        }
      ],
      "stateMutability": "view",
      "type": "function"
    },
    {
      "inputs": [
        {
          "internalType": "uint256",
          "name": "baseAmount",
          "type": "uint256"
        }
      ],
      "name": "calculateTokenAmount",
      "outputs": [
        {
          "internalType": "uint256",
          "name": "",
          "type": "uint256"
        }
      ],
      "stateMutability": "view",
      "type": "function"
    },
    {
      "inputs": [
        {
          "internalType": "address",
          "name": "user",
          "type": "address"
        },
        {
          "internalType": "uint256",
          "name": "amount",
          "type": "uint256"
        }
      ],
      "name": "canParticipate",
      "outputs": [
        {
          "internalType": "bool",
          "name": "",
          "type": "bool"
        },
        {
          "internalType": "string",
          "name": "",
          "type": "string"
        }
      ],
      "stateMutability": "view",
      "type": "function"
    },
    {
      "inputs": [],
      "name": "cancelPresale",
      "outputs": [],
      "stateMutability": "nonpayable",
      "type": "function"
    },
    {
      "inputs": [],
      "name": "cancelled",
      "outputs": [
        {
          "internalType": "bool",
          "name": "",
          "type": "bool"
        }
      ],
      "stateMutability": "view",
      "type": "function"
    },
    {
      "inputs": [],
      "name": "claimRefund",
      "outputs": [],
      "stateMutability": "nonpayable",
      "type": "function"
    },
    {
      "inputs": [],
      "name": "claimTokens",
      "outputs": [],
      "stateMutability": "nonpayable",
      "type": "function"
    },
    {
      "inputs": [],
      "name": "finalize",
      "outputs": [],
      "stateMutability": "nonpayable",
      "type": "function"
    },
    {
      "inputs": [],
      "name": "finalized",
      "outputs": [
        {
          "internalType": "bool",
          "name": "",
          "type": "bool"
        }
      ],
      "stateMutability": "view",
      "type": "function"
    },
    {
      "inputs": [],
      "name": "getProgress",
      "outputs": [
        {
          "internalType": "uint256",
          "name": "",
          "type": "uint256"
        }
      ],
      "stateMutability": "view",
      "type": "function"
    },
    {
      "inputs": [],
      "name": "getStatus",
      "outputs": [
        {
          "internalType": "enum PresaleV3.PresaleStatus",
          "name": "",
          "type": "uint8"
        }
      ],
      "stateMutability": "view",
      "type": "function"
    },
    {
      "inputs": [
        {
          "internalType": "address",
          "name": "user",
          "type": "address"
        }
      ],
      "name": "isWhitelisted",
      "outputs": [
        {
          "internalType": "bool",
          "name": "",
          "type": "bool"
        }
      ],
      "stateMutability": "view",
      "type": "function"
    },
    {
      "inputs": [],
      "name": "lockDelay",
      "outputs": [
        {
          "internalType": "uint256",
          "name": "",
          "type": "uint256"
        }
      ],
      "stateMutability": "view",
      "type": "function"
    },
    {
      "inputs": [],
      "name": "lpLockDuration",
      "outputs": [
        {
          "internalType": "uint256",
          "name": "",
          "type": "uint256"
        }
      ],
      "stateMutability": "view",
      "type": "function"
    },
    {
      "inputs": [],
      "name": "lpRecipient",
      "outputs": [
        {
          "internalType": "address",
          "name": "",
          "type": "address"
        }
      ],
      "stateMutability": "view",
      "type": "function"
    },
    {
      "inputs": [],
      "name": "lpTokenAddress",
      "outputs": [
        {
          "internalType": "address",
          "name": "",
          "type": "address"
        }
      ],
      "stateMutability": "view",
      "type": "function"
    },
    {
      "inputs": [],
      "name": "lpTokensWithdrawn",
      "outputs": [
        {
          "internalType": "bool",
          "name": "",
          "type": "bool"
        }
      ],
      "stateMutability": "view",
      "type": "function"
    },
    {
      "inputs": [],
      "name": "lpUnlockTime",
      "outputs": [
        {
          "internalType": "uint256",
          "name": "",
          "type": "uint256"
        }
      ],
      "stateMutability": "view",
      "type": "function"
    },
    {
      "inputs": [
        {
          "internalType": "address",
          "name": "",
          "type": "address"
        },
        {
          "internalType": "address",
          "name": "",
          "type": "address"
        },
        {
          "internalType": "uint256",
          "name": "",
          "type": "uint256"
        },
        {
          "internalType": "bytes",
          "name": "",
          "type": "bytes"
        }
      ],
      "name": "onERC721Received",
      "outputs": [
        {
          "internalType": "bytes4",
          "name": "",
          "type": "bytes4"
        }
      ],
      "stateMutability": "pure",
      "type": "function"
    },
    {
      "inputs": [],
      "name": "owner",
      "outputs": [
        {
          "internalType": "address",
          "name": "",
          "type": "address"
        }
      ],
      "stateMutability": "view",
      "type": "function"
    },
    {
      "inputs": [],
      "name": "participantCount",
      "outputs": [
        {
          "internalType": "uint256",
          "name": "",
          "type": "uint256"
        }
      ],
      "stateMutability": "view",
      "type": "function"
    },
    {
      "inputs": [
        {
          "internalType": "uint256",
          "name": "amount",
          "type": "uint256"
        }
      ],
      "name": "participate",
      "outputs": [],
      "stateMutability": "payable",
      "type": "function"
    },
    {
      "inputs": [
        {
          "internalType": "address",
          "name": "",
          "type": "address"
        }
      ],
      "name": "permanentWhitelist",
      "outputs": [
        {
          "internalType": "bool",
          "name": "",
          "type": "bool"
        }
      ],
      "stateMutability": "view",
      "type": "function"
    },
    {
      "inputs": [],
      "name": "positionManager",
      "outputs": [
        {
          "internalType": "contract INonfungiblePositionManager",
          "name": "",
          "type": "address"
        }
      ],
      "stateMutability": "view",
      "type": "function"
    },
    {
      "inputs": [],
      "name": "presaleInfo",
      "outputs": [
        {
          "internalType": "address",
          "name": "saleToken",
          "type": "address"
        },
        {
          "internalType": "address",
          "name": "baseToken",
          "type": "address"
        },
        {
          "internalType": "uint256",
          "name": "tokenRate",
          "type": "uint256"
        },
        {
          "internalType": "uint256",
          "name": "liquidityRate",
          "type": "uint256"
        },
        {
          "internalType": "uint256",
          "name": "raiseMin",
          "type": "uint256"
        },
        {
          "internalType": "uint256",
          "name": "raiseMax",
          "type": "uint256"
        },
        {
          "internalType": "uint256",
          "name": "softCap",
          "type": "uint256"
        },
        {
          "internalType": "uint256",
          "name": "hardCap",
          "type": "uint256"
        },
        {
          "internalType": "uint256",
          "name": "liquidityPercent",
          "type": "uint256"
        },
        {
          "internalType": "uint256",
          "name": "presaleStart",
          "type": "uint256"
        },
        {
          "internalType": "uint256",
          "name": "presaleEnd",
          "type": "uint256"
        },
        {
          "internalType": "enum PresaleV3.PresaleType",
          "name": "presaleType",
          "type": "uint8"
        },
        {
          "internalType": "uint256",
          "name": "publicTime",
          "type": "uint256"
        }
      ],
      "stateMutability": "view",
      "type": "function"
    },
    {
      "inputs": [],
      "name": "raisedAmount",
      "outputs": [
        {
          "internalType": "uint256",
          "name": "",
          "type": "uint256"
        }
      ],
      "stateMutability": "view",
      "type": "function"
    },
    {
      "inputs": [
        {
          "internalType": "address[]",
          "name": "users",
          "type": "address[]"
        }
      ],
      "name": "removeFromWhitelist",
      "outputs": [],
      "stateMutability": "nonpayable",
      "type": "function"
    },
    {
      "inputs": [
        {
          "internalType": "uint256",
          "name": "_lockDuration",
          "type": "uint256"
        },
        {
          "internalType": "address",
          "name": "_recipient",
          "type": "address"
        }
      ],
      "name": "setLPLockSettings",
      "outputs": [],
      "stateMutability": "nonpayable",
      "type": "function"
    },
    {
      "inputs": [
        {
          "internalType": "uint256",
          "name": "_delay",
          "type": "uint256"
        }
      ],
      "name": "setLockDelay",
      "outputs": [],
      "stateMutability": "nonpayable",
      "type": "function"
    },
    {
      "inputs": [
        {
          "internalType": "address",
          "name": "_pm",
          "type": "address"
        },
        {
          "internalType": "uint24",
          "name": "_fee",
          "type": "uint24"
        },
        {
          "internalType": "address",
          "name": "_helper",
          "type": "address"
        }
      ],
      "name": "setPositionManager",
      "outputs": [],
      "stateMutability": "nonpayable",
      "type": "function"
    },
    {
      "inputs": [
        {
          "internalType": "enum PresaleV3.PresaleType",
          "name": "_type",
          "type": "uint8"
        },
        {
          "internalType": "uint256",
          "name": "_publicTime",
          "type": "uint256"
        }
      ],
      "name": "setPresaleType",
      "outputs": [],
      "stateMutability": "nonpayable",
      "type": "function"
    },
    {
      "inputs": [],
      "name": "soldTokens",
      "outputs": [
        {
          "internalType": "uint256",
          "name": "",
          "type": "uint256"
        }
      ],
      "stateMutability": "view",
      "type": "function"
    },
    {
      "inputs": [],
      "name": "tokenInfo",
      "outputs": [
        {
          "internalType": "string",
          "name": "name",
          "type": "string"
        },
        {
          "internalType": "string",
          "name": "symbol",
          "type": "string"
        },
        {
          "internalType": "uint256",
          "name": "totalSupply",
          "type": "uint256"
        },
        {
          "internalType": "uint8",
          "name": "decimals",
          "type": "uint8"
        }
      ],
      "stateMutability": "view",
      "type": "function"
    },
    {
      "inputs": [],
      "name": "tokenUnlockTime",
      "outputs": [
        {
          "internalType": "uint256",
          "name": "",
          "type": "uint256"
        }
      ],
      "stateMutability": "view",
      "type": "function"
    },
    {
      "inputs": [
        {
          "internalType": "address",
          "name": "newOwner",
          "type": "address"
        }
      ],
      "name": "transferOwnership",
      "outputs": [],
      "stateMutability": "nonpayable",
      "type": "function"
    },
    {
      "inputs": [],
      "name": "v3LiquidityHelper",
      "outputs": [
        {
          "internalType": "address",
          "name": "",
          "type": "address"
        }
      ],
      "stateMutability": "view",
      "type": "function"
    },
    {
      "inputs": [],
      "name": "v3PoolAddress",
      "outputs": [
        {
          "internalType": "address",
          "name": "",
          "type": "address"
        }
      ],
      "stateMutability": "view",
      "type": "function"
    },
    {
      "inputs": [],
      "name": "v3PoolFee",
      "outputs": [
        {
          "internalType": "uint24",
          "name": "",
          "type": "uint24"
        }
      ],
      "stateMutability": "view",
      "type": "function"
    },
    {
      "inputs": [],
      "name": "v3PositionTokenId",
      "outputs": [
        {
          "internalType": "uint256",
          "name": "",
          "type": "uint256"
        }
      ],
      "stateMutability": "view",
      "type": "function"
    },
    {
      "inputs": [
        {
          "internalType": "address",
          "name": "",
          "type": "address"
        }
      ],
      "name": "whitelist",
      "outputs": [
        {
          "internalType": "bool",
          "name": "",
          "type": "bool"
        }
      ],
      "stateMutability": "view",
      "type": "function"
    },
    {
      "inputs": [],
      "name": "withdrawLPTokens",
      "outputs": [],
      "stateMutability": "nonpayable",
      "type": "function"
    },
    {
      "inputs": [],
      "name": "withdrawPosition",
      "outputs": [],
      "stateMutability": "nonpayable",
      "type": "function"
    },
    {
      "inputs": [],
      "name": "withdrawRemainingFunds",
      "outputs": [],
      "stateMutability": "nonpayable",
      "type": "function"
    },
    {
      "stateMutability": "payable",
      "type": "receive"
    }
  ],
  "bytecode": "0x60806040523480156200001157600080fd5b5060405162003c9438038062003c948339810160408190526200003491620007e7565b60016000556001600160a01b038c16620000855760405162461bcd60e51b815260206004820152600d60248201526c24b73b30b634b21037bbb732b960991b60448201526064015b60405180910390fd5b6001600160a01b038b16620000d25760405162461bcd60e51b815260206004820152601260248201527124b73b30b634b21039b0b632903a37b5b2b760711b60448201526064016200007c565b60008911620001195760405162461bcd60e51b8152602060048201526012602482015271496e76616c696420746f6b656e207261746560701b60448201526064016200007c565b600088116200016b5760405162461bcd60e51b815260206004820152601660248201527f496e76616c6964206c697175696469747920726174650000000000000000000060448201526064016200007c565b6000871180156200017b57508686115b620001c95760405162461bcd60e51b815260206004820152601460248201527f496e76616c6964207261697365206c696d69747300000000000000000000000060448201526064016200007c565b600085118015620001d957508484115b620002165760405162461bcd60e51b815260206004820152600c60248201526b496e76616c6964206361707360a01b60448201526064016200007c565b60008311801562000228575060648311155b620002765760405162461bcd60e51b815260206004820152601960248201527f496e76616c6964206c69717569646974792070657263656e740000000000000060448201526064016200007c565b428211620002bc5760405162461bcd60e51b8152602060048201526012602482015271496e76616c69642073746172742074696d6560701b60448201526064016200007c565b818111620003005760405162461bcd60e51b815260206004820152601060248201526f496e76616c696420656e642074696d6560801b60448201526064016200007c565b8b600160006101000a8154816001600160a01b0302191690836001600160a01b03160217905550604051806101a001604052808c6001600160a01b031681526020018b6001600160a01b031681526020018a8152602001898152602001888152602001878152602001868152602001858152602001848152602001838152602001828152602001600060018111156200039d576200039d6200088b565b815260006020918201528151600280546001600160a01b039283166001600160a01b0319918216178255928401516003805491909316931692909217905560408201516004556060820151600555608082015160065560a082015160075560c082015160085560e0820151600955610100820151600a55610120820151600b55610140820151600c55610160820151600d805460ff1916600183818111156200044a576200044a6200088b565b021790555061018082015181600c015590505060008b90506040518060800160405280826001600160a01b03166306fdde036040518163ffffffff1660e01b8152600401600060405180830381865afa158015620004ac573d6000803e3d6000fd5b505050506040513d6000823e601f3d908101601f19168201604052620004d69190810190620008b7565b8152602001826001600160a01b03166395d89b416040518163ffffffff1660e01b8152600401600060405180830381865afa1580156200051a573d6000803e3d6000fd5b505050506040513d6000823e601f3d908101601f19168201604052620005449190810190620008b7565b8152602001826001600160a01b03166318160ddd6040518163ffffffff1660e01b8152600401602060405180830381865afa15801562000588573d6000803e3d6000fd5b505050506040513d601f19601f82011682018060405250810190620005ae919062000993565b8152602001826001600160a01b031663313ce5676040518163ffffffff1660e01b8152600401602060405180830381865afa158015620005f2573d6000803e3d6000fd5b505050506040513d601f19601f82011682018060405250810190620006189190620009ad565b60ff16905280518051600f91620006359183916020019062000724565b50602082810151805162000650926001850192019062000724565b506040820151816002015560608201518160030160006101000a81548160ff021916908360ff16021790555090505062278d00601a819055508c601b60006101000a8154816001600160a01b0302191690836001600160a01b03160217905550610bb8601c60146101000a81548162ffffff021916908362ffffff160217905550306001600160a01b03168d6001600160a01b03167fcfea6066a7ff70439f7cfe020aea9709cf4b7cb462225660895dfcc5c38716ae60405160405180910390a35050505050505050505050505062000a16565b8280546200073290620009d9565b90600052602060002090601f016020900481019282620007565760008555620007a1565b82601f106200077157805160ff1916838001178555620007a1565b82800160010185558215620007a1579182015b82811115620007a157825182559160200191906001019062000784565b50620007af929150620007b3565b5090565b5b80821115620007af5760008155600101620007b4565b80516001600160a01b0381168114620007e257600080fd5b919050565b6000806000806000806000806000806000806101808d8f0312156200080b57600080fd5b620008168d620007ca565b9b506200082660208e01620007ca565b9a506200083660408e01620007ca565b995060608d0151985060808d0151975060a08d0151965060c08d0151955060e08d015194506101008d015193506101208d015192506101408d015191506101608d015190509295989b509295989b509295989b565b634e487b7160e01b600052602160045260246000fd5b634e487b7160e01b600052604160045260246000fd5b60006020808385031215620008cb57600080fd5b82516001600160401b0380821115620008e357600080fd5b818501915085601f830112620008f857600080fd5b8151818111156200090d576200090d620008a1565b604051601f8201601f19908116603f01168101908382118183101715620009385762000938620008a1565b8160405282815288868487010111156200095157600080fd5b600093505b8284101562000975578484018601518185018701529285019262000956565b82841115620009875760008684830101525b98975050505050505050565b600060208284031215620009a657600080fd5b5051919050565b600060208284031215620009c057600080fd5b815160ff81168114620009d257600080fd5b9392505050565b600181811c90821680620009ee57607f821691505b6020821081141562000a1057634e487b7160e01b600052602260045260246000fd5b50919050565b61326e8062000a266000396000f3fe6080604052600436106102b25760003560e01c8063791b98bc11610175578063b5545a3c116100dc578063de35eb2411610095578063edf8bc131161006f578063edf8bc13146106b0578063ef86ce8e146108db578063f2fde38b146108f0578063f5ae497a1461091057600080fd5b8063de35eb241461088f578063dedae247146108a5578063e816d2ad146108bb57600080fd5b8063b5545a3c146107f7578063c3ec8ad61461080c578063c59ee1dc14610822578063c943dc4014610838578063ca1a961d1461084e578063ce0cbd281461086e57600080fd5b80639a2f1f931161012e5780639a2f1f93146107365780639a82a09a146107565780639b19251a14610770578063a1634b14146107a0578063a24bcf46146107b8578063b3f05b97146107d857600080fd5b8063791b98bc1461065d578063845c93061461067d5780638da5cb5b14610690578063901b8d82146106b0578063939c4456146106c557806397a993aa146106da57600080fd5b80634e69d5601161021957806362c5dc7d116101d257806362c5dc7d14610588578063648e85c6146105a85780636882a888146105be5780636addb663146105e85780636d75c5d21461060d5780636fa14bc31461062d57600080fd5b80634e69d560146104ed5780634e6fd6c41461050f5780634e7e67a414610525578063529d68781461053c578063548db174146105525780635ed9ebfc1461057257600080fd5b80633af32abf1161026b5780633af32abf1461043c578063408ae5851461046c578063452e68dd1461048e578063467e53b1146104ae57806348c54b9d146104c35780634bb278f3146104d857600080fd5b806305a30fee146102be578063150b7a02146102f55780631555f10e1461033a5780631727533f146103725780632edf0869146103a9578063362f04c01461041857600080fd5b366102b957005b600080fd5b3480156102ca57600080fd5b506102de6102d9366004612b1d565b610930565b6040516102ec929190612ba1565b60405180910390f35b34801561030157600080fd5b50610321610310366004612bc4565b630a85bd0160e11b95945050505050565b6040516001600160e01b031990911681526020016102ec565b34801561034657600080fd5b50601e5461035a906001600160a01b031681565b6040516001600160a01b0390911681526020016102ec565b34801561037e57600080fd5b50601c5461039590600160a01b900462ffffff1681565b60405162ffffff90911681526020016102ec565b3480156103b557600080fd5b50600254600354600454600554600654600754600854600954600a54600b54600c54600d54600e546103ff9c6001600160a01b039081169c169a99989796959493929160ff16908d565b6040516102ec9d9c9b9a99989796959493929190612c79565b34801561042457600080fd5b5061042e60155481565b6040519081526020016102ec565b34801561044857600080fd5b5061045c610457366004612d01565b610ae0565b60405190151581526020016102ec565b34801561047857600080fd5b5061048c610487366004612d71565b610b3d565b005b34801561049a57600080fd5b50601b5461035a906001600160a01b031681565b3480156104ba57600080fd5b5061048c610c44565b3480156104cf57600080fd5b5061048c610cfe565b3480156104e457600080fd5b5061048c610ecd565b3480156104f957600080fd5b506105026111ac565b6040516102ec9190612dc8565b34801561051b57600080fd5b5061035a61dead81565b34801561053157600080fd5b5061042e62278d0081565b34801561054857600080fd5b5061042e601d5481565b34801561055e57600080fd5b5061048c61056d366004612de2565b61121d565b34801561057e57600080fd5b5061042e60145481565b34801561059457600080fd5b5061048c6105a3366004612e24565b61130b565b3480156105b457600080fd5b5061042e60195481565b3480156105ca57600080fd5b506105d5620d89e881565b60405160029190910b81526020016102ec565b3480156105f457600080fd5b506105fd611425565b6040516102ec9493929190612e54565b34801561061957600080fd5b5061048c610628366004612e94565b611555565b34801561063957600080fd5b5061045c610648366004612d01565b60236020526000908152604090205460ff1681565b34801561066957600080fd5b50601c5461035a906001600160a01b031681565b61048c61068b366004612eb6565b611610565b34801561069c57600080fd5b5060015461035a906001600160a01b031681565b3480156106bc57600080fd5b5061048c6117ff565b3480156106d157600080fd5b5061042e611a81565b3480156106e657600080fd5b506107196106f5366004612d01565b60216020526000908152604090208054600182015460029092015490919060ff1683565b6040805193845260208401929092521515908201526060016102ec565b34801561074257600080fd5b50601f5461035a906001600160a01b031681565b34801561076257600080fd5b5060165461045c9060ff1681565b34801561077c57600080fd5b5061045c61078b366004612d01565b60226020526000908152604090205460ff1681565b3480156107ac57600080fd5b506105d5620d89e71981565b3480156107c457600080fd5b5061042e6107d3366004612eb6565b611aac565b3480156107e457600080fd5b5060165461045c90610100900460ff1681565b34801561080357600080fd5b5061048c611ae5565b34801561081857600080fd5b5061042e60001981565b34801561082e57600080fd5b5061042e60135481565b34801561084457600080fd5b5061042e60205481565b34801561085a57600080fd5b5061048c610869366004612eb6565b611c9c565b34801561087a57600080fd5b50601b5461045c90600160a01b900460ff1681565b34801561089b57600080fd5b5061042e601a5481565b3480156108b157600080fd5b5061042e60175481565b3480156108c757600080fd5b5061048c6108d6366004612ecf565b611cf3565b3480156108e757600080fd5b5061048c611e97565b3480156108fc57600080fd5b5061048c61090b366004612d01565b61201e565b34801561091c57600080fd5b5060185461035a906001600160a01b031681565b60006060600161093e6111ac565b600581111561094f5761094f612c63565b1461098757505060408051808201909152601281527150726573616c65206e6f742061637469766560701b6020820152600090610ad9565b61099084610ae0565b6109c457505060408051808201909152600f81526e139bdd081dda1a5d195b1a5cdd1959608a1b6020820152600090610ad9565b600654831015610a0c57505060408051808201909152601a81527f42656c6f77206d696e696d756d20636f6e747269627574696f6e0000000000006020820152600090610ad9565b6001600160a01b038416600090815260216020526040812054610a2f90856120b4565b600754909150811115610a7b57505060408051808201909152601c81527f45786365656473206d6178696d756d20636f6e747269627574696f6e00000000602082015260009150610ad9565b600954601354610a8b90866120b4565b1115610ac357505060408051808201909152601081526f0457863656564732068617264206361760841b602082015260009150610ad9565b5050604080516020810190915260008152600191505b9250929050565b600080600d5460ff166001811115610afa57610afa612c63565b1415610b1e57600e541580610b115750600e544210155b15610b1e57506001919050565b506001600160a01b031660009081526022602052604090205460ff1690565b6001546001600160a01b03163314610b705760405162461bcd60e51b8152600401610b6790612f17565b60405180910390fd5b60005b82811015610c3e57600160226000868685818110610b9357610b93612f3a565b9050602002016020810190610ba89190612d01565b6001600160a01b031681526020810191909152604001600020805460ff19169115159190911790558115610c2c57600160236000868685818110610bee57610bee612f3a565b9050602002016020810190610c039190612d01565b6001600160a01b031681526020810191909152604001600020805460ff19169115159190911790555b80610c3681612f66565b915050610b73565b50505050565b6001546001600160a01b03163314610c6e5760405162461bcd60e51b8152600401610b6790612f17565b601654610100900460ff1615610cc65760405162461bcd60e51b815260206004820181905260248201527f43616e6e6f742063616e63656c2061667465722066696e616c697a6174696f6e6044820152606401610b67565b6016805460ff191660011790556040517fd2cd724ddf2a5df0530f823642f354d39f58719906bbecf0820f498c9c5a359f90600090a1565b60026000541415610d215760405162461bcd60e51b8152600401610b6790612f81565b60026000556005610d306111ac565b6005811115610d4157610d41612c63565b14610d7e5760405162461bcd60e51b815260206004820152600d60248201526c139bdd08199a5b985b1a5e9959609a1b6044820152606401610b67565b601754421015610dc65760405162461bcd60e51b8152602060048201526013602482015272151bdad95b9cc81cdd1a5b1b081b1bd8dad959606a1b6044820152606401610b67565b3360009081526021602052604090206001810154610e1b5760405162461bcd60e51b81526020600482015260126024820152714e6f20746f6b656e7320746f20636c61696d60701b6044820152606401610b67565b600281015460ff1615610e625760405162461bcd60e51b815260206004820152600f60248201526e105b1c9958591e4818db185a5b5959608a1b6044820152606401610b67565b6001808201546002808401805460ff19169093179092559054610e8f906001600160a01b0316338361211a565b60405181815233907f896e034966eaaf1adc54acc0f257056febbd300c9e47182cf761982cf1f5e4309060200160405180910390a250506001600055565b60026000541415610ef05760405162461bcd60e51b8152600401610b6790612f81565b60026000556001546001600160a01b03163314610f1f5760405162461bcd60e51b8152600401610b6790612f17565b601654610100900460ff1615610f6b5760405162461bcd60e51b8152602060048201526011602482015270105b1c9958591e48199a5b985b1a5e9959607a1b6044820152606401610b67565b6002610f756111ac565b6005811115610f8657610f86612c63565b14610fcc5760405162461bcd60e51b8152602060048201526016602482015275141c995cd85b19481b9bdd081cdd58d8d95cdcd99d5b60521b6044820152606401610b67565b601c546001600160a01b03166110245760405162461bcd60e51b815260206004820152601860248201527f506f736974696f6e206d616e61676572206e6f742073657400000000000000006044820152606401610b67565b600354600a546013546001600160a01b0390921615916000916110549160649161104e9190612235565b906122b4565b9050611060828261230f565b81156110af574780156110a9576001546040516001600160a01b039091169082156108fc029083906000818181858888f193505050501580156110a7573d6000803e3d6000fd5b505b50611147565b6003546040516370a0823160e01b81523060048201526000916001600160a01b0316906370a0823190602401602060405180830381865afa1580156110f8573d6000803e3d6000fd5b505050506040513d601f19601f8201168201806040525081019061111c9190612fb8565b905080156111455760035460018054611145926001600160a01b039081169291169084906126fe565b505b6016805461ff0019166101001790556020546111649042906120b4565b60175560135460408051918252602082018390527fedfde254cb8ed39d650c9a34251c59d6817fae4cc876cc2ce76669976cf102ee910160405180910390a150506001600055565b60165460009060ff16156111c05750600490565b601654610100900460ff16156111d65750600590565b600b544210156111e65750600090565b600c54421161120657600954601354106112005750600290565b50600190565b600854601354106112175750600290565b50600390565b6001546001600160a01b031633146112475760405162461bcd60e51b8152600401610b6790612f17565b60005b81811015611306576023600084848481811061126857611268612f3a565b905060200201602081019061127d9190612d01565b6001600160a01b0316815260208101919091526040016000205460ff166112f4576000602260008585858181106112b6576112b6612f3a565b90506020020160208101906112cb9190612d01565b6001600160a01b031681526020810191909152604001600020805460ff19169115159190911790555b806112fe81612f66565b91505061124a565b505050565b6001546001600160a01b031633146113355760405162461bcd60e51b8152600401610b6790612f17565b601654610100900460ff161561135d5760405162461bcd60e51b8152600401610b6790612fd1565b62278d0082101580611370575060001982145b6113b45760405162461bcd60e51b815260206004820152601560248201527424b73b30b634b2103637b1b590323ab930ba34b7b760591b6044820152606401610b67565b6001600160a01b0381166113fe5760405162461bcd60e51b8152602060048201526011602482015270125b9d985b1a59081c9958da5c1a595b9d607a1b6044820152606401610b67565b601a91909155601b80546001600160a01b0319166001600160a01b03909216919091179055565b600f8054819061143490613006565b80601f016020809104026020016040519081016040528092919081815260200182805461146090613006565b80156114ad5780601f10611482576101008083540402835291602001916114ad565b820191906000526020600020905b81548152906001019060200180831161149057829003601f168201915b5050505050908060010180546114c290613006565b80601f01602080910402602001604051908101604052809291908181526020018280546114ee90613006565b801561153b5780601f106115105761010080835404028352916020019161153b565b820191906000526020600020905b81548152906001019060200180831161151e57829003601f168201915b50505050600283015460039093015491929160ff16905084565b6001546001600160a01b0316331461157f5760405162461bcd60e51b8152600401610b6790612f17565b60006115896111ac565b600581111561159a5761159a612c63565b146115e75760405162461bcd60e51b815260206004820152601760248201527f50726573616c6520616c726561647920737461727465640000000000000000006044820152606401610b67565b600d805483919060ff19166001838181111561160557611605612c63565b0217905550600e5550565b600260005414156116335760405162461bcd60e51b8152600401610b6790612f81565b600260005560016116426111ac565b600581111561165357611653612c63565b146116955760405162461bcd60e51b815260206004820152601260248201527150726573616c65206e6f742061637469766560701b6044820152606401610b67565b6003546001600160a01b0316156000816116af57826116b1565b345b90506000806116c03384610930565b915091508181906116e45760405162461bcd60e51b8152600401610b67919061303b565b5060006116f084611aac565b9050600081116117305760405162461bcd60e51b815260206004820152600b60248201526a5a65726f20746f6b656e7360a81b6044820152606401610b67565b3360009081526021602052604090208054611757576015546117539060016120b4565b6015555b805461176390866120b4565b8155600181015461177490836120b4565b600182015560135461178690866120b4565b60135560145461179690836120b4565b601455856117b6576003546117b6906001600160a01b031633308861285b565b604080518681526020810184905233917f64ceaa25376a606505a20223863437c73f24c3d44eca9912c49197b4aea536a4910160405180910390a2505060016000555050505050565b600260005414156118225760405162461bcd60e51b8152600401610b6790612f81565b6002600055601d546118765760405162461bcd60e51b815260206004820152601760248201527f4e6f20706f736974696f6e20746f2077697468647261770000000000000000006044820152606401610b67565b601b54600160a01b900460ff16156118d05760405162461bcd60e51b815260206004820152601a60248201527f506f736974696f6e20616c72656164792077697468647261776e0000000000006044820152606401610b67565b601b546001600160a01b0316331461191e5760405162461bcd60e51b815260206004820152601160248201527013db9b1e481314081c9958da5c1a595b9d607a1b6044820152606401610b67565b60001960195414156119725760405162461bcd60e51b815260206004820152601760248201527f506f736974696f6e206c6f636b656420666f72657665720000000000000000006044820152606401610b67565b6019544210156119bc5760405162461bcd60e51b8152602060048201526015602482015274141bdcda5d1a5bdb881cdd1a5b1b081b1bd8dad959605a1b6044820152606401610b67565b601d54601b8054600160a01b60ff60a01b19821617909155601c54604051632142170760e11b81523060048201526001600160a01b039283166024820152604481018490529116906342842e0e90606401600060405180830381600087803b158015611a2757600080fd5b505af1158015611a3b573d6000803e3d6000fd5b5050601b546040516001600160a01b0390911692508391507f0f6a939a3e7f9bc7fab8a6b3a32be849d45e262d8c8188c4e494c8c5b480121c90600090a3506001600055565b600954600090611a915750600090565b600954601354611aa7919061104e906064612235565b905090565b60128054600091611adf91611ac69160ff9091169061304e565b611ad190600a613155565b60045461104e908590612235565b92915050565b60026000541415611b085760405162461bcd60e51b8152600401610b6790612f81565b60026000908155611b176111ac565b90506003816005811115611b2d57611b2d612c63565b1480611b4a57506004816005811115611b4857611b48612c63565b145b611b8b5760405162461bcd60e51b8152602060048201526012602482015271141c995cd85b19481b9bdd0819985a5b195960721b6044820152606401610b67565b3360009081526021602052604090208054611be85760405162461bcd60e51b815260206004820152601960248201527f4e6f20636f6e747269627574696f6e20746f20726566756e64000000000000006044820152606401610b67565b600281015460ff1615611c2f5760405162461bcd60e51b815260206004820152600f60248201526e105b1c9958591e4818db185a5b5959608a1b6044820152606401610b67565b805460028201805460ff191660011790556003546001600160a01b0316801590611c5c90338484156126fe565b60405182815233907f358fe4192934d3bf28ae181feda1f4bd08ca67f5e2fad55582cce5eb67304ae99060200160405180910390a2505060016000555050565b6001546001600160a01b03163314611cc65760405162461bcd60e51b8152600401610b6790612f17565b601654610100900460ff1615611cee5760405162461bcd60e51b8152600401610b6790612fd1565b602055565b6001546001600160a01b03163314611d1d5760405162461bcd60e51b8152600401610b6790612f17565b601654610100900460ff1615611d455760405162461bcd60e51b8152600401610b6790612fd1565b6001600160a01b038316611d9b5760405162461bcd60e51b815260206004820152601860248201527f496e76616c696420706f736974696f6e206d616e6167657200000000000000006044820152606401610b67565b6001600160a01b038116611de25760405162461bcd60e51b815260206004820152600e60248201526d24b73b30b634b2103432b63832b960911b6044820152606401610b67565b8162ffffff166101f41480611dfd57508162ffffff16610bb8145b80611e0e57508162ffffff16612710145b611e4d5760405162461bcd60e51b815260206004820152601060248201526f24b73b30b634b2103332b2903a34b2b960811b6044820152606401610b67565b601c805462ffffff909316600160a01b026001600160b81b03199093166001600160a01b039485161792909217909155601f8054919092166001600160a01b031991909116179055565b60026000541415611eba5760405162461bcd60e51b8152600401610b6790612f81565b60026000556001546001600160a01b03163314611ee95760405162461bcd60e51b8152600401610b6790612f17565b6005611ef36111ac565b6005811115611f0457611f04612c63565b14611f415760405162461bcd60e51b815260206004820152600d60248201526c139bdd08199a5b985b1a5e9959609a1b6044820152606401610b67565b6002546040516370a0823160e01b81523060048201526000916001600160a01b0316906370a0823190602401602060405180830381865afa158015611f8a573d6000803e3d6000fd5b505050506040513d601f19601f82011682018060405250810190611fae9190612fb8565b9050801561201657600254600154611fd3916001600160a01b0390811691168361211a565b6001546040518281526001600160a01b03909116907f1e563d9e18af5db6fd44fc692df8325fdf25841bc9ba0ec5ea17f128b12766e39060200160405180910390a25b506001600055565b6001546001600160a01b031633146120485760405162461bcd60e51b8152600401610b6790612f17565b6001600160a01b0381166120925760405162461bcd60e51b815260206004820152601160248201527024b73b30b634b2103732bb9037bbb732b960791b6044820152606401610b67565b600180546001600160a01b0319166001600160a01b0392909216919091179055565b6000806120c18385613164565b9050838110156121135760405162461bcd60e51b815260206004820152601b60248201527f536166654d6174683a206164646974696f6e206f766572666c6f7700000000006044820152606401610b67565b9392505050565b604080516001600160a01b038481166024830152604480830185905283518084039091018152606490920183526020820180516001600160e01b031663a9059cbb60e01b1790529151600092839290871691612176919061317c565b6000604051808303816000865af19150503d80600081146121b3576040519150601f19603f3d011682016040523d82523d6000602084013e6121b8565b606091505b50915091508180156121e25750805115806121e25750808060200190518101906121e29190613198565b61222e5760405162461bcd60e51b815260206004820152601f60248201527f5472616e7366657248656c7065723a205452414e534645525f4641494c4544006044820152606401610b67565b5050505050565b60008261224457506000611adf565b600061225083856131b5565b90508261225d85836131d4565b146121135760405162461bcd60e51b815260206004820152602160248201527f536166654d6174683a206d756c7469706c69636174696f6e206f766572666c6f6044820152607760f81b6064820152608401610b67565b60008082116123055760405162461bcd60e51b815260206004820152601a60248201527f536166654d6174683a206469766973696f6e206279207a65726f0000000000006044820152606401610b67565b61211382846131d4565b60128054600091612342916123299160ff9091169061304e565b61233490600a613155565b60055461104e908590612235565b6002546040516370a0823160e01b815230600482015291925082916001600160a01b03909116906370a0823190602401602060405180830381865afa15801561238f573d6000803e3d6000fd5b505050506040513d601f19601f820116820180604052508101906123b39190612fb8565b101561240b5760405162461bcd60e51b815260206004820152602160248201527f496e73756666696369656e7420746f6b656e7320666f72206c697175696469746044820152607960f81b6064820152608401610b67565b600080601c60009054906101000a90046001600160a01b03166001600160a01b0316634aa4a4fc6040518163ffffffff1660e01b8152600401602060405180830381865afa158015612461573d6000803e3d6000fd5b505050506040513d601f19601f8201168201806040525081019061248591906131f6565b905060008561249f576003546001600160a01b03166124a1565b815b6002549091506000906001600160a01b038084169116106124cf5760025482906001600160a01b03166124dd565b6002546001600160a01b0316825b5060025490915060009081906001600160a01b03808516911614612502578787612505565b86885b915091506125138282612983565b600254601f5460405163095ea7b360e01b81526001600160a01b039182166004820152602481018b905292985016955063095ea7b394506044019250612557915050565b6020604051808303816000875af1158015612576573d6000803e3d6000fd5b505050506040513d601f19601f8201168201806040525081019061259a9190613198565b506000846125a95760006125ab565b835b601f54600254601c54604051637eea584b60e01b81526001600160a01b03928316600482015260248101889052600160a01b90910462ffffff166044820152858216606482015292935060009283929190911690637eea584b908590608401604080518083038185885af1158015612627573d6000803e3d6000fd5b50505050506040513d601f19601f8201168201806040525081019061264c9190613213565b601d829055601e80546001600160a01b0383166001600160a01b03199182168117909255601880549091169091179055601a5491935091506000191461269f57601a5461269a9042906120b4565b6126a3565b6000195b6019819055601b805460ff60a01b191690556040519081526001600160a01b0382169083907fdaa98aca4bcd3916f7dbc30c6b646e83ea55bd82f21e39fcfdea70ca68bac5989060200160405180910390a350505050505050565b8061273f576040516001600160a01b0384169083156108fc029084906000818181858888f19350505050158015612739573d6000803e3d6000fd5b50610c3e565b604080516001600160a01b038581166024830152604480830186905283518084039091018152606490920183526020820180516001600160e01b031663a9059cbb60e01b179052915160009283929088169161279b919061317c565b6000604051808303816000865af19150503d80600081146127d8576040519150601f19603f3d011682016040523d82523d6000602084013e6127dd565b606091505b50915091508180156128075750805115806128075750808060200190518101906128079190613198565b6128535760405162461bcd60e51b815260206004820152601f60248201527f5472616e7366657248656c7065723a205452414e534645525f4641494c4544006044820152606401610b67565b505050505050565b604080516001600160a01b0385811660248301528481166044830152606480830185905283518084039091018152608490920183526020820180516001600160e01b03166323b872dd60e01b17905291516000928392908816916128bf919061317c565b6000604051808303816000865af19150503d80600081146128fc576040519150601f19603f3d011682016040523d82523d6000602084013e612901565b606091505b509150915081801561292b57508051158061292b57508080602001905181019061292b9190613198565b6128535760405162461bcd60e51b8152602060048201526024808201527f5472616e7366657248656c7065723a205452414e534645525f46524f4d5f46416044820152631253115160e21b6064820152608401610b67565b600080831180156129945750600082115b6129d25760405162461bcd60e51b815260206004820152600f60248201526e496e76616c696420616d6f756e747360881b6044820152606401610b67565b60006129dd83612a9e565b905060006129ea85612a9e565b905060008111612a345760405162461bcd60e51b81526020600482015260156024820152747371727428616d6f756e743029206973207a65726f60581b6044820152606401610b67565b6000612a4482606085901b6131d4565b90506001600160a01b03811115612a955760405162461bcd60e51b8152602060048201526015602482015274737172745072696365583936206f766572666c6f7760581b6044820152606401610b67565b95945050505050565b600081612aad57506000919050565b60006002612abc846001613164565b612ac691906131d4565b90508291505b81811015612aff57905080600281612ae481866131d4565b612aee9190613164565b612af891906131d4565b9050612acc565b50919050565b6001600160a01b0381168114612b1a57600080fd5b50565b60008060408385031215612b3057600080fd5b8235612b3b81612b05565b946020939093013593505050565b60005b83811015612b64578181015183820152602001612b4c565b83811115610c3e5750506000910152565b60008151808452612b8d816020860160208601612b49565b601f01601f19169290920160200192915050565b8215158152604060208201526000612bbc6040830184612b75565b949350505050565b600080600080600060808688031215612bdc57600080fd5b8535612be781612b05565b94506020860135612bf781612b05565b935060408601359250606086013567ffffffffffffffff80821115612c1b57600080fd5b818801915088601f830112612c2f57600080fd5b813581811115612c3e57600080fd5b896020828501011115612c5057600080fd5b9699959850939650602001949392505050565b634e487b7160e01b600052602160045260246000fd5b6001600160a01b038e811682528d166020820152604081018c9052606081018b9052608081018a905260a0810189905260c0810188905260e081018790526101008101869052610120810185905261014081018490526101a0810160028410612ce457612ce4612c63565b61016082019390935261018001529b9a5050505050505050505050565b600060208284031215612d1357600080fd5b813561211381612b05565b60008083601f840112612d3057600080fd5b50813567ffffffffffffffff811115612d4857600080fd5b6020830191508360208260051b8501011115610ad957600080fd5b8015158114612b1a57600080fd5b600080600060408486031215612d8657600080fd5b833567ffffffffffffffff811115612d9d57600080fd5b612da986828701612d1e565b9094509250506020840135612dbd81612d63565b809150509250925092565b6020810160068310612ddc57612ddc612c63565b91905290565b60008060208385031215612df557600080fd5b823567ffffffffffffffff811115612e0c57600080fd5b612e1885828601612d1e565b90969095509350505050565b60008060408385031215612e3757600080fd5b823591506020830135612e4981612b05565b809150509250929050565b608081526000612e676080830187612b75565b8281036020840152612e798187612b75565b91505083604083015260ff8316606083015295945050505050565b60008060408385031215612ea757600080fd5b823560028110612b3b57600080fd5b600060208284031215612ec857600080fd5b5035919050565b600080600060608486031215612ee457600080fd5b8335612eef81612b05565b9250602084013562ffffff81168114612f0757600080fd5b91506040840135612dbd81612b05565b6020808252600990820152682737ba1037bbb732b960b91b604082015260600190565b634e487b7160e01b600052603260045260246000fd5b634e487b7160e01b600052601160045260246000fd5b6000600019821415612f7a57612f7a612f50565b5060010190565b6020808252601f908201527f5265656e7472616e637947756172643a207265656e7472616e742063616c6c00604082015260600190565b600060208284031215612fca57600080fd5b5051919050565b6020808252818101527f43616e6e6f74206368616e67652061667465722066696e616c697a6174696f6e604082015260600190565b600181811c9082168061301a57607f821691505b60208210811415612aff57634e487b7160e01b600052602260045260246000fd5b6020815260006121136020830184612b75565b600060ff821660ff84168082101561306857613068612f50565b90039392505050565b600181815b808511156130ac57816000190482111561309257613092612f50565b8085161561309f57918102915b93841c9390800290613076565b509250929050565b6000826130c357506001611adf565b816130d057506000611adf565b81600181146130e657600281146130f05761310c565b6001915050611adf565b60ff84111561310157613101612f50565b50506001821b611adf565b5060208310610133831016604e8410600b841016171561312f575081810a611adf565b6131398383613071565b806000190482111561314d5761314d612f50565b029392505050565b600061211360ff8416836130b4565b6000821982111561317757613177612f50565b500190565b6000825161318e818460208701612b49565b9190910192915050565b6000602082840312156131aa57600080fd5b815161211381612d63565b60008160001904831182151516156131cf576131cf612f50565b500290565b6000826131f157634e487b7160e01b600052601260045260246000fd5b500490565b60006020828403121561320857600080fd5b815161211381612b05565b6000806040838503121561322657600080fd5b825191506020830151612e4981612b0556fea2646970667358221220ad7252bcf378ef8568ed539e72a7d6cfdd5a3187da6c9b480cc9acd0d07ed19a64736f6c634300080c0033",
  "linkReferences": {},
  "deployedLinkReferences": {}
}