{
  "_format": "hh-sol-artifact-1",
  "contractName": "V3LiquidityHelper",
  "sourceName": "contracts/presale/V3LiquidityHelper.sol",
  "abi": [
    {
      "inputs": [
        {
          "internalType": "address",
          "name": "_positionManager",
          "type": "address"
        }
      ],
      "stateMutability": "nonpayable",
      "type": "constructor"
    },
    {
      "inputs": [],
      "name": "MAX_TICK",
      "outputs": [
        {
          "internalType": "int24",
          "name": "",
          "type": "int24"
        }
      ],
      "stateMutability": "view",
      "type": "function"
    },
    {
      "inputs": [],
      "name": "MIN_TICK",
      "outputs": [
        {
          "internalType": "int24",
          "name": "",
          "type": "int24"
        }
      ],
      "stateMutability": "view",
      "type": "function"
    },
    {
      "inputs": [
        {
          "internalType": "address",
          "name": "saleToken",
          "type": "address"
        },
        {
          "internalType": "uint256",
          "name": "tokenAmount",
          "type": "uint256"
        },
        {
          "internalType": "uint24",
          "name": "fee",
          "type": "uint24"
        },
        {
          "internalType": "uint160",
          "name": "sqrtPriceX96",
          "type": "uint160"
        }
      ],
      "name": "deployLiquidity",
      "outputs": [
        {
          "internalType": "uint256",
          "name": "tokenId",
          "type": "uint256"
        },
        {
          "internalType": "address",
          "name": "pool",
          "type": "address"
        }
      ],
      "stateMutability": "payable",
      "type": "function"
    },
    {
      "inputs": [
        {
          "internalType": "address",
          "name": "",
          "type": "address"
        },
        {
          "internalType": "address",
          "name": "",
          "type": "address"
        },
        {
          "internalType": "uint256",
          "name": "",
          "type": "uint256"
        },
        {
          "internalType": "bytes",
          "name": "",
          "type": "bytes"
        }
      ],
      "name": "onERC721Received",
      "outputs": [
        {
          "internalType": "bytes4",
          "name": "",
          "type": "bytes4"
        }
      ],
      "stateMutability": "pure",
      "type": "function"
    },
    {
      "inputs": [],
      "name": "positionManager",
      "outputs": [
        {
          "internalType": "contract INPMHelper",
          "name": "",
          "type": "address"
        }
      ],
      "stateMutability": "view",
      "type": "function"
    },
    {
      "stateMutability": "payable",
      "type": "receive"
    }
  ],
  "bytecode": "0x60a060405234801561001057600080fd5b50604051610b4e380380610b4e83398101604081905261002f91610040565b6001600160a01b0316608052610070565b60006020828403121561005257600080fd5b81516001600160a01b038116811461006957600080fd5b9392505050565b608051610aa86100a66000396000818160e0015281816102250152818161031d015281816103a101526104320152610aa86000f3fe60806040526004361061004e5760003560e01c8063150b7a021461005a5780636882a888146100a4578063791b98bc146100ce5780637eea584b1461011a578063a1634b141461014a57600080fd5b3661005557005b600080fd5b34801561006657600080fd5b506100866100753660046106ff565b630a85bd0160e11b95945050505050565b6040516001600160e01b031990911681526020015b60405180910390f35b3480156100b057600080fd5b506100bb620d89e881565b60405160029190910b815260200161009b565b3480156100da57600080fd5b506101027f000000000000000000000000000000000000000000000000000000000000000081565b6040516001600160a01b03909116815260200161009b565b61012d61012836600461079e565b610162565b604080519283526001600160a01b0390911660208301520161009b565b34801561015657600080fd5b506100bb620d89e71981565b600080600034116101a95760405162461bcd60e51b815260206004820152600d60248201526c4d7573742073656e64204b4c4360981b604482015260640160405180910390fd5b6040516323b872dd60e01b8152336004820152306024820152604481018690526001600160a01b038716906323b872dd906064016020604051808303816000875af11580156101fc573d6000803e3d6000fd5b505050506040513d601f19601f8201168201806040525081019061022091906107f9565b5060007f00000000000000000000000000000000000000000000000000000000000000006001600160a01b0316634aa4a4fc6040518163ffffffff1660e01b8152600401602060405180830381865afa158015610281573d6000803e3d6000fd5b505050506040513d601f19601f820116820180604052508101906102a59190610822565b9050600080600080846001600160a01b03168b6001600160a01b031610156102d75750899250839150889050346102e3565b50839250899150349050885b6040516309f56ab160e11b81526001600160a01b038581166004830152848116602483015262ffffff8b16604483015289811660648301527f000000000000000000000000000000000000000000000000000000000000000016906313ead562906084016020604051808303816000875af1158015610366573d6000803e3d6000fd5b505050506040513d601f19601f8201168201806040525081019061038a9190610822565b60405163095ea7b360e01b81526001600160a01b037f0000000000000000000000000000000000000000000000000000000000000000811660048301526000196024830152919750908c169063095ea7b3906044016020604051808303816000875af11580156103fe573d6000803e3d6000fd5b505050506040513d601f19601f8201168201806040525081019061042291906107f9565b50600061042e8a610698565b90507f00000000000000000000000000000000000000000000000000000000000000006001600160a01b0316638831645634604051806101600160405280896001600160a01b03168152602001886001600160a01b031681526020018e62ffffff1681526020018586620d89e7196104a69190610855565b6104b0919061089d565b60020b8152602001856104c681620d89e8610855565b6104d0919061089d565b60020b8152602081018890526040810187905260006060820181905260808201523360a082015260c00161050642610e1061092a565b8152506040518363ffffffff1660e01b81526004016105259190610942565b60806040518083038185885af1158015610543573d6000803e3d6000fd5b50505050506040513d601f19601f820116820180604052508101906105689190610a06565b50506040516370a0823160e01b81523060048201529199506000916001600160a01b038f1691506370a0823190602401602060405180830381865afa1580156105b5573d6000803e3d6000fd5b505050506040513d601f19601f820116820180604052508101906105d99190610a59565b905080156106545760405163a9059cbb60e01b8152336004820152602481018290526001600160a01b038e169063a9059cbb906044016020604051808303816000875af115801561062e573d6000803e3d6000fd5b505050506040513d601f19601f8201168201806040525081019061065291906107f9565b505b47156106885760405133904780156108fc02916000818181858888f19350505050158015610686573d6000803e3d6000fd5b505b5050505050505094509492505050565b60008162ffffff166101f414156106b15750600a919050565b8162ffffff16610bb814156106c85750603c919050565b8162ffffff1661271014156106df575060c8919050565b50603c919050565b6001600160a01b03811681146106fc57600080fd5b50565b60008060008060006080868803121561071757600080fd5b8535610722816106e7565b94506020860135610732816106e7565b935060408601359250606086013567ffffffffffffffff8082111561075657600080fd5b818801915088601f83011261076a57600080fd5b81358181111561077957600080fd5b89602082850101111561078b57600080fd5b9699959850939650602001949392505050565b600080600080608085870312156107b457600080fd5b84356107bf816106e7565b935060208501359250604085013562ffffff811681146107de57600080fd5b915060608501356107ee816106e7565b939692955090935050565b60006020828403121561080b57600080fd5b8151801515811461081b57600080fd5b9392505050565b60006020828403121561083457600080fd5b815161081b816106e7565b634e487b7160e01b600052601160045260246000fd5b60008160020b8360020b8061087a57634e487b7160e01b600052601260045260246000fd5b627fffff198214600019821416156108945761089461083f565b90059392505050565b60008160020b8360020b627fffff6000821360008413838304851182821616156108c9576108c961083f565b627fffff1960008512828116878305871216156108e8576108e861083f565b600087129250858205871284841616156109045761090461083f565b8585058712818416161561091a5761091a61083f565b5050509290910295945050505050565b6000821982111561093d5761093d61083f565b500190565b81516001600160a01b031681526101608101602083015161096e60208401826001600160a01b03169052565b506040830151610985604084018262ffffff169052565b50606083015161099a606084018260020b9052565b5060808301516109af608084018260020b9052565b5060a083015160a083015260c083015160c083015260e083015160e0830152610100808401518184015250610120808401516109f5828501826001600160a01b03169052565b505061014092830151919092015290565b60008060008060808587031215610a1c57600080fd5b8451935060208501516fffffffffffffffffffffffffffffffff81168114610a4357600080fd5b6040860151606090960151949790965092505050565b600060208284031215610a6b57600080fd5b505191905056fea264697066735822122075030e04d880a83dec0d1690f9e83edd59d5ba444aa9e73099e210d889d15b9664736f6c634300080c0033",
  "linkReferences": {},
  "deployedLinkReferences": {}
}